:100000000C94DF020C9428030C9428030C947F0EAC
:100010000C9428030C9428030C9428030C942803B4
:100020000C9428030C9428030C9490200C946421C5
:100030000C94161B0C9428030C9428030C9428038E
:100040000C9428030C9428030C9428030C94280384
:100050000C9428030C946D1B0C9428030C94280317
:100060000C9428030C9428030C9428030C94280364
:100070000C9428030C9428030C9428030C94280354
:100080000C9428030C9428030C9428030C94280344
:100090000C9428030C9428030C9428030C94280334
:1000A0000C9428030C9428030C94280300003400BB
:1000B0003600370013001C0000000464126108625F
:1000C00018680C000000330014000D000E001B0027
:1000D0000000000000004C432841294800000F00A8
:1000E000150006000A00090000001674117117724D
:1000F0000B78070000001D0019001A001000050011
:100100000000000000002B442C422A4800000000A0
:1001100000000000000000000000E200E000E1003C
:10012000E3000000000000000000000000000000EC
:100130000000000000004C000100290000004D00FC
:10014000000000004A00000000004F005200510073
:10015000500000000000000000000000000000004F
:100160000000000000002B002C002A00000000000E
:100170002F00300031000000390035002D002E0026
:1001800038000000000000000000000000001750D0
:100190000000000000004C002800290000000000C2
:1001A00000000000000000000000E600E400E500A0
:1001B000E7000000000000000000000000001550F3
:1001C0000000000000002B0001002A0000000000D9
:1001D00000000000000000000000E200E000E1007C
:1001E000E30000000000000000000000000000002C
:1001F00000000000000001002800290000000000AD
:1002000020001F001E000000000027002300220025
:10021000210000000000000026002500240000004E
:100220000000000000002B002C002A0000003A0013
:100230003B003C003D00000000003E003F0040004D
:10024000410000000000420043004400450000005F
:100250000000000000004C00280001000000000029
:1002600000000000000000000000E600E400E500DF
:10027000E700000000000000000000000000000097
:100280000000000000002B002C002A002B001400AE
:100290001A000800150017002900040016000700C6
:1002A00009000A00E1001D001B00060019000500FE
:1002B00000000000000006512C00E0002A0013009E
:1002C00012000C0018001C00280033000F000E0064
:1002D0000D000B00E500380037003600100011005B
:1002E00000000000000000002C00085100001E006B
:1002F0001F00200000000000E20021002200230077
:100300002700000000002400250026000000000057
:1003100000000000000001000000000000000000DC
:1003200000000000000000000000000000000000CD
:1003300000000000000000000000000000000000BD
:100340000000000000000000000000000000015A52
:10035000015A015A015A00000000075A095A0B5A63
:100360000D5A115A0000075A0A5A0C5A0E5A115ABD
:100370000000000000000F5A105A00000000015A4F
:10038000015A015A015A0000225A205A1E5A1C5A78
:100390001A5A115A295A215A1F5A1D5A1B5A115AB0
:1003A000000000000000195A185A07511550175044
:1003B00000000000000010500000000000000000DD
:1003C0000000000000005000510052004F000000EB
:1003D000000000000000000000000000005C0000C1
:1003E000000000000000000000000000000000000D
:1003F000000000000000E600E400E500E700000067
:1004000000000000000000000000000000D0D0D07C
:10041000D0D0D001010204081020414244484800D5
:100420000000484850608182848890A0C1C2C4D036
:10043000D0D0D0D0D0C800000000000000000000E4
:100440000000000000000000000000000C0343005A
:100450006F0072006E0065000000100366006F0000
:100460006F007300740061006E0000000403090453
:1004700009027800040100A0FA0904000001030148
:100480000100092111010001224000070581030834
:10049000000A090401000103000000092111010004
:1004A000012284000705820320000A080B020202D1
:1004B00002010009040200010202010005240010EB
:1004C0000104240202052406020307058303080031
:1004D000FF09040300020A000000070505021000DE
:1004E000050705840210000512011001EF02010842
:1004F0005346010001000102000105010902A101AA
:1005000085020901A1000509190129081500250125
:100510009508750181020501093009311581257F92
:1005200095027508810609381581257F95017508A2
:100530008106050C0A38021581257F950175088111
:1005400006C0C005010906A1018505050719E029B6
:10055000E715002501950875018102050719002995
:10056000EF1500250195F075018102050819012993
:1005700005950575019102950175039101C005016D
:100580000906A101050719E029E7150025019508CD
:10059000750181029501750881010507190029FF80
:1005A000150026FF00950675088100050819012928
:1005B00005950575019102950175039101C01124FE
:1005C0001FBECFEFDAE0DEBFCDBF04B603FE29C009
:1005D00080916B0290916C02A0916D02B0916E02BD
:1005E0008730904BA740B04BE1F410926B02109211
:1005F0006C0210926D0210926E0214BE84B7877F57
:1006000084BF0FB6F894A8958091600088618093AC
:100610006000109260000FBEE0915C02F0915D02FC
:10062000099411E0A0E0B1E0E6ECFAE402C0059024
:100630000D92A035B107D9F722E0A0E5B1E001C0E5
:100640001D92AB36B207E1F70E94C41D0C943D2504
:100650000C94000081E0089581E008950C942C032F
:1006600008950C9430031F93CF93DF9300D000D0F4
:100670000F92CDB7DEB749835A836B8330919801CF
:1006800089819A8131111DC06623B9F02223A9F016
:100690000E94F417182F682F89819A810E949D1754
:1006A00069817A81812F0F900F900F900F900F909A
:1006B000DF91CF911F910C94F7030E94CB17182F55
:1006C000EFCF0E94F41769817A81EDCFFC01262FCC
:1006D000408151816281738184810C943303CF9373
:1006E000DF93EC0160E00E946603BE01DF91CF91D1
:1006F0000C9431030E94BE050C94E3050C94E605AE
:1007000008950E9456130E9480032FEF84E39CE01B
:10071000215080409040E1F700C000000C94D21BB3
:100720000F931F93CF93DF938C0161E00E946603C8
:10073000EC01B8010E942E038823D9F1B801CE0143
:100740000E94EB078823A9F1B801CE010E94DF0BBC
:10075000882379F1B801CE010E94310C882349F138
:10076000B801CE010E94540D882319F1F80182814D
:10077000882361F0CB35FDE5DF0721F170F4C11569
:10078000ECE5DE07A1F0CF3DDC45C9F0C801DF9103
:10079000CF911F910F910C942A03CC358DE5D8078A
:1007A000A1F0CD35DD4591F70E949B18EFCF0E9457
:1007B000810380E0DF91CF911F910F9108950E94F6
:1007C000011AF7CF0E94A418E1CF0E94A718DECF2C
:1007D00008950C94E80381E008950C94EB03CF9303
:1007E000C82F0E94E9038C2FCF910C94ED03972F13
:1007F00070E026E0929F600D711D1124FB0190E3D3
:10080000899FE00DF11D1124EE0FFF1FE455FF4FEE
:10081000859194910895CF93DF930E94F7030E94EE
:10082000E304EC01811522E5920778F5811531E5A5
:10083000930708F098C08F3F910509F0B8F48D3EFA
:10084000910508F06FC0853A910540F48430910518
:1008500048F4019739F0D0E0C0E004C0805E91090F
:100860000897C8F7CE01DF91CF910895811540E533
:10087000940708F05CC0C11580E4D80708F054C0A4
:10088000C11590E2D90770F3E6CF811526E59207EE
:1008900018F5811535E5930708F07DC0811544E50D
:1008A000940708F073C0982F969596959E01237033
:1008B0003327C115D34508F45BC0C1E0D0E002C0C6
:1008C000CC0FDD1F2A95E2F730E2939FC00111247F
:1008D000C82BD92BDA68C6CFC1159AE5D90778F4A9
:1008E000C11529E5D20708F060C0C11538E5D30766
:1008F00008F4B1CFDC2FCC27C06FD06AB3CFCE01C4
:1009000090568115904208F0A6CF8D2F8F710E94CE
:100910007A0590E0982F882788279F719C012C2BBF
:10092000E90141C0D0659ECFDF70D06A9BCFE4E083
:1009300096958795EA95E1F783702C2F2695269555
:10094000237090E2299F90011124382B8C2F837003
:10095000C1E0D0E002C0CC0FDD1F8A95E2F7C22BC8
:10096000D32BDC687FCFD82FCC27C16FD06A7ACF4A
:10097000C1E0D0E002C0CC0FDD1F2A95E2F720E2F3
:10098000929FC0011124C82BD92BEBCFD82FCC2795
:10099000C46FD06A67CF0E947A05C82FD0E0DC2FE1
:1009A000CC27CC27DF71D0625DCF8C2F8F700E9457
:1009B0007A0534E0D695C7953A95E1F7CF709C2F2C
:1009C000EC01D0694FCF82389105B1F1B0F4813399
:1009D000910509F475C048F48932910509F469C09C
:1009E0008A32910509F473C008958533910509F49D
:1009F00059C08933910501F10895833E9105A9F10C
:100A000038F4803E9105F9F0823E910549F1089550
:100A1000863E9105A9F1873E9105C9F1843E910575
:100A200019F52091410221FF1FC08091400284FDF1
:100A300014C087EE90E00895209140022370A1F049
:100A400080EE90E008952091400220FD47C0309153
:100A5000410230FF09C024FF44C090E080E004C0A0
:100A60002091400222FDF7CF08952091400222FDFF
:100A70003BC03091410230FDE3CF24FFF5CFEDCFF5
:100A80002091400223FFF0CF24FDE7CFD2CF209169
:100A9000400223FD2CC03091410231FFEECF84EEA5
:100AA00090E008952091400225FFDECF89E290E09A
:100AB00008952091400225FFD7CF85E390E0089567
:100AC0002091400226FFD0CF8AE290E00895209145
:100AD000400226FFC9CF81E390E0089589E390E0CA
:100AE000089583EE90E0089582EE90E0089586EEFA
:100AF00090E008959091400292FF06C0282F28713F
:100B00002830F9F4877F846093FF06C0282F28716E
:100B10002831F1F4877E84612091410220FF06C0D4
:100B2000382F38713830D9F4877F816021FF06C0B3
:100B3000282F28712831D1F4877E816194FD877E2A
:100B40000895282F24712430F9F68B7F8860DCCF3C
:100B5000282F2471243101F78B7E8861DDCF382F57
:100B60003171313019F78E7F8860E0CF282F2171E5
:100B7000213121F78E7E8861E1CF08950E945C19B2
:100B8000811102C00E94011A0E94671980931C0201
:100B90000E946F1990934102809340020E94BD050C
:100BA0000E946B19682F70E090E080E00E949F1611
:100BB0006091EF017091F0018091F1019091F2014B
:100BC0000C94D91608950C94E20508950C94E5054B
:100BD000E82FF0E0E65BFD4F80810895089580EAFC
:100BE0008A95F1F7089500C008950C94EF05F894E4
:100BF000E82FE295EF70F0E031A1282F2F7081E00F
:100C000090E001C0880F2A95EAF7982F90959323DA
:100C100091A392A1892B82A37894089508950C94AE
:100C20000E060E948E07809100018091000194E0E1
:100C3000811190E09093530284E0891B80935202CB
:100C400084E90E94F70586E60E94F70587E90E947D
:100C5000F70586EC0E94F70584EF0E94F70585EF03
:100C60000E94F70586EF0E94F70587EF0E94F705BF
:100C700081E30E94F70583E30E94F705E2E4F2E0D6
:100C8000AAE4B2E08AE492E011921D928E179F07C7
:100C9000D9F784E00E943D070E947A030C949807DC
:100CA0001F93CF93DF9300D000D0CDB7DEB70E9463
:100CB0007407182F60915302882309F44FC01982DA
:100CC0001A821B821C82862F90E0BE016F5F7F4FCD
:100CD000865B9D4F0E948A0D811120C08091520138
:100CE0008F5F809352018630B8F1E0915202F0E0BC
:100CF000E65BFD4FDE011196CE01059611921D9225
:100D0000A817B907D9F70E947E03812F0F900F9083
:100D10000F900F90DF91CF911F9108951092520183
:100D2000A0915202B0E0A65BBD4FBE016F5F7F4F46
:100D30009E012B5F3F4F10E04D91FB019191BF0150
:100D4000491731F0AD0141505109FA019083182F34
:100D50006217730789F7D7CF10E0D5CF70E0665BD5
:100D60007D4F8091520290E0865B9D4F0E94B10DB5
:100D70000E940F06CACFCF92DF92EF92FF920F939D
:100D80001F93CF93DF9307E411E082E4E82E82E023
:100D9000F82EC0E0CC24C394D12CF80181918F01AE
:100DA000F894E82FE295EF70F0E021A18F70A60192
:100DB00002C0440F551F8A95E2F7CA01922F982B63
:100DC00091A392A18095892382A378940E94F30530
:100DD000E1E4F1E030E020E0D0E04191A42FA295E1
:100DE000AF70B0E090968C9190E04F7002C09595F6
:100DF00087954A95E2F780FD3CC08C2D022E01C0FC
:100E0000880F0A94EAF7D82B2F5F3F4F2630310521
:100E100021F7F801319780810E94F7050E94F505BE
:100E2000F7018081D81739F1D08381E0C82BFFEF1B
:100E3000EF1AFF0A41E00B34140709F0AECF6091BE
:100E4000530270E0665B7D4F2C2F44E082E492E019
:100E50000E943E070E945006C11101C0C82F8C2F6E
:100E6000DF91CF911F910F91FF90EF90DF90CF9086
:100E7000089580E0C8CF80E0D9CF0895FF920F9306
:100E80001F93CF93DF93F82E092F162FD72FC42F40
:100E9000222349F081E0809355010E94461B9093E4
:100EA000540180935301809155018823A1F08091D2
:100EB0005301909154010E945E1B069760F0EF2D44
:100EC000F02FA12FBD2FCE0FDF2FD11DEC17FD0767
:100ED00041F410925501DF91CF911F910F91FF9036
:100EE000089581918D93F2CF80915601811107C0B1
:100EF0000E94B424882351F081E08093560181E060
:100F000090915601913009F080E0089582E080933D
:100F100056010E94AF24F3CF0C9474070E948C07F3
:100F2000809300010E94740781110C947E0D089536
:100F30000E947407811102C00C94840D089586E00C
:100F4000EFE5F1E0DF01982F1D929A95E9F7E9E5C9
:100F5000F1E0DF011D928A95E9F70895CF93DF93C1
:100F600000D000D00F92CDB7DEB76B837C838D832A
:100F70008C819D81892B21F0CA0189238F3F51F4F7
:100F800080E081700F900F900F900F900F90DF9185
:100F9000CF9108958B81F5CF0E945C19811102C019
:100FA0000E94011A8DE090E00E94FB24809357017B
:100FB0000895CF93C82F0E949F07C09357016C2FAD
:100FC0008DE090E0CF910C94092581E0089581E0B7
:100FD000089581E00895EF92FF920F931F93CF93AE
:100FE000DF937C01EB0180E3E8168AE5F806E9F07F
:100FF00030F4C7019A558A97A0F1C1E01DC0F1E312
:10100000EF16FAE5FF06C9F781E39AE50E94E907C2
:10101000882389F0488159816A817B818C810E9473
:10102000AE07882341F081E019C080E39AE50E9471
:10103000E907811109C0C0E08C2FDF91CF911F918A
:101040000F91FF90EF900895488159816A817B81CB
:101050008C810E94AE07882371F380E00E94D9073B
:10106000EACFC7010E94E907882329F310915701AD
:101070001123F9F0113009F445C00091580129E518
:1010800031E0412FBE01C7010E94E707882399F292
:10109000488159816A817B818C810E94AE07C82F6B
:1010A00080915801CC2309F458C08F5F8093580178
:1010B000C2CF488159816A817B818C810E94AE07B1
:1010C000F701FF27E45FFB4F9491A92FA295A69506
:1010D000A695A370B0E0882371F09D01215A3E4F80
:1010E000F9018081892B8083A75ABE4F8C91E92F0B
:1010F000E82BEC93C2CFA15ABE4FE92FE0958C911B
:10110000E823F7CF488159816A817B818C810E94D5
:10111000AE07482F8E2D67E00E94C124292FE82FAB
:10112000F0E086E090E0821B910921E030E001C010
:10113000220F8A95EAF7DF01A15ABE4F8C91442312
:1011400041F0822B8C93E75AFE4F8081282B20831D
:1011500094CF209528232C9390CF815018160CF40F
:10116000A5CF1092580169E571E0809157010E9466
:10117000E507882331F080915701882329F08130D9
:1011800099F00E949F0758CF09E511E0F80181917D
:101190008F0181110E94871DF1E00D351F07B1F706
:1011A00080E00E94871DEDCF809159018068809377
:1011B000590109E511E08FE5E82E81E0F82EF801EC
:1011C00081918F010E94871DE016F106C1F7D9CFEA
:1011D00080916B0180FF12C06091060185E0689FDD
:1011E000B0011124759567957595679560387105FF
:1011F000A8F561157105A1F1862F089581FF09C039
:101200006091060185E0689FB0011124759567958E
:10121000EDCF6091060182FD0AC080916A018823AA
:10122000D1F09091050160910601891728F085E0C1
:10123000689FB0011124DACF869FB001112485E0A8
:10124000869F9001879F300D1124692F70E0C9019E
:101250000E94CD24CBCF65E070E0CECF8FE708951C
:1012600081E0089580916B0180FF0CC060910201C4
:1012700070E075956795759567956115710549F1EC
:10128000862F089581FF06C06091020170E0759578
:101290006795F3CF6091020182FD0BC090916901C7
:1012A0009923A1F06091010180910201961738F015
:1012B000682F70E06038710500F38FE70895899F0B
:1012C000C001112470E00E94CD24F4CF61E070E0F1
:1012D000D7CF81E008958D3E31F40E94E8088195D2
:1012E00080936F0108958E3E19F40E94E808F8CFAC
:1012F0008F3E31F40E94E808819580936E01089535
:10130000803F19F40E94E808F8CF893F29F40E9431
:1013100032098093700108958A3F21F40E943209B6
:101320008195F7CF8B3F31F40E94320981958093EC
:10133000710108958C3F19F40E943209F8CF9FE0A3
:10134000980F983070F4815F990B21E030E001C074
:10135000220F8A95EAF780916D01822B80936D01AF
:1013600008958D3F31F480916B01816080936B0112
:1013700008958E3F21F480916B018260F7CF8F3FFB
:10138000B9F780916B018460F1CF40916E018D3E81
:1013900059F480916F0187FF0DC010926F014111C8
:1013A0000BC010926A0108C08E3E81F480916F01DB
:1013B00018169CF3442381F0809170019091710183
:1013C000892B09F05AC01092690108958F3E49F4A3
:1013D00047FFF0CF10926E0180916F018111ECCF29
:1013E000E0CF803F19F41416ACF3E4CF9091700174
:1013F000893F29F41916F4F610927001DBCF8A3F69
:1014000019F497FFD7CFF8CF909171018B3F29F452
:1014100097FFD0CF10927101CDCF8C3F19F41916E0
:10142000CCF3C8CF9FE0980F983090F4815F990B70
:1014300021E030E0B90102C0660F771F8A95E2F71C
:10144000CB01809590916D01892380936D01B2CF7E
:101450008D3F31F480916B018E7F80936B01AACF19
:101460008E3F21F480916B018D7FF7CF8F3F09F084
:10147000A1CF80916B018B7FF0CF08950E94461B16
:101480009C0190916E0180916F01982B21F0309317
:101490006801209367019091700180917101982BF0
:1014A00021F030936601209365018CE691E00C9465
:1014B000490FEF92FF920F931F93CF93DF9300D0CA
:1014C00000D000D0CDB7DEB786E0ECE6F1E0DE017B
:1014D000119601900D928A95E1F7E0906E01F090DF
:1014E0006F01009170011091710110926E011092C4
:1014F0006F0110927001109271018E2D8F2991F061
:1015000080916701909168010E945E1BAC019091EF
:101510006A01992309F43FC08091070184171506D9
:1015200008F447C0802F812B91F080916501909144
:1015300066010E945E1BAC0190916901992309F438
:1015400077C0809103018417150608F47FC080914D
:101550006E0190916F01892B90917001892B909170
:101560007101892B11F00E943E0A86E0FE0131963E
:10157000ACE6B1E001900D928A95E1F726960FB6A0
:10158000F894DEBF0FBECDBFDF91CF911F910F91B9
:10159000FF90EF900895209108018AE0289F900124
:1015A00011242417350708F0BDCF9F5F90936A017F
:1015B00002C09F3FD1F7EE2059F00E94E8089FEF4C
:1015C0001E140CF491E0899F802D112480936E01EC
:1015D000FF2059F00E94E8089FEF1F140CF491E0DF
:1015E000899F802D112480936F0130916E013323E8
:1015F00009F498CF20916F01222309F493CF45EB92
:101600003403C0011124992359F090936E0145EBE6
:10161000240390011124332339F030936F0182CFDA
:1016200081E080936E01F3CF81E080936F017ACFE8
:10163000209104018AE0289F900111242417350786
:1016400008F085CF9F5F9093690102C09F3FD1F75B
:10165000002359F00E9432099FEF10160CF491E01C
:10166000899F802D112480937001112359F00E94CD
:1016700032099FEF11160CF491E0899F802D1124FF
:101680008093710130917001332309F460CF209170
:101690007101222309F45BCF45EB3403C00111240F
:1016A000992359F09093700145EB24039001112484
:1016B000332339F0309371014ACF81E08093700178
:1016C000F3CF81E08093710142CF86E0ECE6F1E058
:1016D000DF011D928A95E9F710926A011092690163
:1016E00010926B0108950F931F93CF93DF93C42F34
:1016F000D22FFC0182818823C9F0409374010E949B
:10170000461B909373018093720180E28C0F8830A6
:1017100008F050C0C77081E001C0880FCA95EAF791
:10172000DF91CF911F910F910C94151110917401BD
:10173000141335C080917201909173010E945E1B59
:10174000843B910560F5C0E2CD0F1D17B9F080E232
:10175000810F883040F4177081E001C0880F1A951E
:10176000EAF70E941C11C83048F481E09D2F977061
:1017700001C0880F9A95EAF70E941511802F0E94E8
:101780000D11C830B8F4D77081E001C0880FDA9528
:10179000EAF7DF91CF911F910F910C941C1180E219
:1017A0008C0F883038F4C77081E001C0880FCA956B
:1017B000EAF7EFCFDF91CF911F910F9108950F932B
:1017C0009C01CB01243F4CE5340759F1A8F4293D95
:1017D000FCE53F0701F12A3D4CE53407D1F1283DF6
:1017E0003C4591F406E221EE41EE68ED7CE50E9475
:1017F000730B80E00F910895263FFCE53F07E9F069
:10180000B0F0273F3C45F9F0FC018281882339F193
:1018100010927401EFCF07E225EE45EE69ED7CE50D
:10182000E6CF06E221EE40EE64EF7CE5E0CF07E292
:1018300025EE44EE65EF7CE5DACF06E221EE42EEDE
:1018400066EF7CE5D4CF07E225EE46EE67EF7CE558
:10185000CECF08E221E045EE6AED7CE5C8CF81E01D
:10186000C9CFCF93DF93EC01FB018281882309F478
:1018700019C1C230FCE5DF07C0F1C6319CE5D907CC
:1018800030F09E012B5F3C452930310570F50E94F8
:101890006F199093410280934002C031ECE5DE075E
:1018A00009F4CFC008F05BC0C8308CE5D80709F454
:1018B000B6C088F5C430ECE5DE0709F4A8C0C0F472
:1018C000C2308CE5D80709F49CC080914002826048
:1018D000C330DC4509F498C08091400290914102E8
:1018E0000E947D190E94561380E0DF91CF910895E8
:1018F000809140028061C630ECE5DE0709F484C0C7
:10190000809140028860C730DC4508F47DC080913A
:101910004002806279C0CC308CE5D80709F489C0D8
:1019200070F4809140028C60CA30ECE5DE0709F467
:101930006BC008F478C0809140028E7F65C0CE30C5
:101940008CE5D80709F479C0809140028B7FCF30B5
:10195000DC4508F459C0809140028F7E55C0CC3FD1
:10196000ECE5DE0709F457C030F5C3318CE5D80744
:1019700009F46FC078F4C131ECE5DE0709F465C005
:10198000C231DC4509F0A8CF0E9456138091400275
:101990008F773AC0C5318CE5D80709F462C008F4E6
:1019A00076C0809141028160CB3FDC4509F094CF45
:1019B0008093410291CFC115FDE5DF0709F44DC0C9
:1019C00088F4809141028D7FCE3F9CE5D90781F359
:1019D000809141028E7FCF3FDC4550F380914102E0
:1019E0008360E6CFC230FDE5DF0709F459C008F493
:1019F00044C080E0C330DD4509F06ECF0E94031A79
:101A00006BCF8091400281608093400265CF8091CE
:101A100040028460F9CF809141028260C9CF8091F9
:101A200040028064F1CF0E9456138091400280688A
:101A3000EBCF809140028D7FE7CF80914002877F7E
:101A4000E3CF809140028F7DDFCF809140028F7B7A
:101A5000DBCF80914002837FD7CF809141028C7F82
:101A6000A7CF8091400282FB992790F921E092272D
:101A700090FB82F990FB83F9C7CF80914102982FA8
:101A8000909591708E7F892B90FB81F991CF0E9468
:101A9000561390914002892F97FB87F98058B4CF55
:101AA00081E0ACCF81E021CFCF93DF93EB01863192
:101AB0009C4511F50E94AA189A81992399F08A7A77
:101AC00091E009F490E090937501811109C089E2D9
:101AD0000E9464180E94ED1880E0DF91CF91089574
:101AE00085E3F6CF80917501811104C089E20E94DF
:101AF0006B18F0CF85E3FBCF81E0EFCF61E070E0C2
:101B000089E091E00C94300E61E070E089E091E0B2
:101B10000C94370ECF93DF93D62FC72F0E94D10E90
:101B20000097E9F4ED2FFC2FDC01A558BE4F2C9156
:101B30002193019684309105B9F70E94B71B6E5F1F
:101B40007F4F8F4F9F4F6093770170937801809301
:101B5000790190937A0181E0DF91CF91089580E03F
:101B6000FBCFCF93DF93D62FC72F60917701709172
:101B700078018091790190917A010E949A1BED2F52
:101B8000FC2F90E080E02191DC01A558BE4F2C9302
:101B9000019684309105B9F7DF91CF9108958EE1D8
:101BA0004A9B02C08150E1F74A9BFECF08955A98A4
:101BB00080E28A95F1F75A9A0895FC013BE03A9544
:101BC000F1F798E020E080E031E040E14A95F1F75C
:101BD000880F4A9B02C08160232742E04A95F1F7B3
:101BE000000040E14A95F1F7915079F790E19A951C
:101BF000F1F799B132E03A95F1F7000040E14A95EA
:101C0000F1F792FB992790F992272081920F908308
:101C10000895EF92FF920F931F93CF93DF930F924C
:101C2000CDB7DEB719828C017C01E60EF11C0E15D2
:101C30001F0561F481E09981911180E00F90DF919F
:101C4000CF911F910F91FF90EF9008950E94CF0DBB
:101C5000CE0101960E94DD0DF80181938F01E7CF3F
:101C60009093800180937F01529A5A9A089590939D
:101C7000800180937F0152985A9AEA9AE9E6F0E04F
:101C800080818F7C808308956150770B91E001C043
:101C9000990F6A95EAF720E031E0911108C02223FC
:101CA00091F05A9A80E28A95F1F75A980895492F4F
:101CB000482339F05A9A232740E24A95F1F796953E
:101CC000ECCF5A98F9CF5A98EDCFFF920F931F930C
:101CD000CF93DF93EC018C01060F111DC017D107C4
:101CE00031F4DF91CF911F910F91FF900895F990FA
:101CF0000E94D70D68E08F2D0E94440EEFCF1F92F7
:101D00000F920FB60F9211242F933F934F935F932F
:101D10006F937F938F939F93AF93BF93CF93DF93F3
:101D2000EF93FF935A98529AC0917F01D09180010E
:101D30006D81662321F08E819F810E94650E0E9435
:101D4000D70D80E18A95F1F75A9852985A9A80E116
:101D50008A95F1F76A81662309F18B819C810E9443
:101D6000090EE881F981882311F088E001C082E042
:101D700080830E94CF0DFF91EF91DF91CF91BF91B2
:101D8000AF919F918F917F916F915F914F913F9113
:101D90002F910F900FBE0F901F901895E881F98139
:101DA000E4CFCF93DF93C0917F01D0918001F8946D
:101DB000529A5A9885E08A95F1F7000052985A9AFB
:101DC00080E28A95F1F74A9B0CC0529A5A9AE881B0
:101DD000F98181E08083789481E090E0DF91CF9178
:101DE00008956D81662381F08E819F810E94090E86
:101DF00081110AC0529A5A9AE881F98182E080835F
:101E0000789482E090E0EACF0E94CF0D80E28A953C
:101E1000F1F75A98529A80E18A95F1F76A81662320
:101E200021F08B819C810E94650E0E94D70DE88174
:101E3000F9811082789490E080E0D0CF9093860171
:101E4000809385010895E0918501F0918601309796
:101E500021F00190F081E02D099480E00895E09157
:101E60008501F0918601309799F020913801222365
:101E700059F02091400227FF07C0DC012C911196F8
:101E80002C93119725E02C930280F381E02D099487
:101E90000895E0918501F0918601309739F022E0B4
:101EA000DC012C930480F581E02D099408952091A4
:101EB0008301309184012817390771F090938401D0
:101EC00080938301E0918501F0918601309721F0A4
:101ED0000680F781E02D09940895209181013091C9
:101EE00082012817390771F0909382018093810154
:101EF000E0918501F0918601309721F00084F18511
:101F0000E02D099408950E94521B609394017093F0
:101F1000950180939601909397016093900170933F
:101F200091018093920190939301089585B7806801
:101F300085BF85B7806885BF0895089508950C947E
:101F40009D0F08950C94A10F0E94960F8AE599E1C8
:101F50000E94121C0E949E0F0C949F0F0C947407F9
:101F6000089508950E94B00F0C94B10F0E943D1B7C
:101F70000E94911B0E9411060E94CC070C94A20F94
:101F8000AF92BF92CF92DF92EF92FF920F931F9387
:101F9000CF93DF93CDB7DEB72A970FB6F894DEBFA5
:101FA0000FBECDBF0E94BB0681110E94830F88E83F
:101FB000A82E81E0B82E10E000E0C02E802F0E94F5
:101FC000E805E82EF501F1905F01F81609F44DC01F
:101FD00080911C0281FD0E94EE058F2D8E25D12C53
:101FE000FF24F394982F9F21D9F10E94AE0F8823EC
:101FF00099F0DE82CF82EF2081E009F480E08887CB
:102000000E94461B8160782F9A8789874E815F8165
:1020100068858A850E945D10F801E857FE4F80812F
:10202000F826F0820E94590A0E94230F909187019E
:10203000891791F10E94230F809387012A960FB68A
:10204000F894DEBF0FBECDBFDF91CF911F910F91EE
:10205000FF90EF90DF90CF90BF90AF900C94EF0384
:10206000D394FF0CF6E0DF12BDCF0F5F1F4F083097
:10207000110509F0A2CF8FEF89838A831B820E940A
:10208000461B8160782F9D838C8349815A816B81A7
:102090008D810E945D10C6CF2A960FB6F894DEBFE0
:1020A0000FBECDBFDF91CF911F910F91FF90EF90A9
:1020B000DF90CF90BF90AF900895DF92EF92FF92A4
:1020C0000F931F93CF93DF93CDB7DEB72B970FB648
:1020D000F894DEBF0FBECDBF7A878B87F42E052F15
:1020E000162FE72ED82E61110E94CA181E821D825B
:1020F0007E2DEC82DD824F2D502F612F8D2D9E8104
:102100002B960FB6F894DEBF0FBECDBFDF91CF91F7
:102110001F910F91FF90EF90DF900C94F515FC014B
:10212000808191810C943618CF93C82F882369F150
:102130008CEF8C0F813AA0F46C2F8091110190915B
:1021400012010E941C1A882329F08C2F0E946B1800
:102150000E94ED188C2F0E946418CF910C94ED18FA
:1021600080E28C0F883048F4C77081E001C0880F8E
:10217000CA95EAF70E94AD18F0CFCD3E30F08C2F13
:102180000E946B09CF910C943E0ACF910895882349
:1021900061F19CEF980F913A20F40E946B180C9417
:1021A000ED1890E2980F983050F4877091E001C0DC
:1021B000990F8A95EAF7892F0E94B318F0CF9BE513
:1021C000980F933020F490E080E00C94570F98E53E
:1021D000980F973120F490E080E00C946D0F8D3EC5
:1021E00020F00E94C5090C943E0A08951F93CF93D6
:1021F000DF93182FEB010E949410209731F4812F68
:10220000DF91CF911F910C94C7108FE99FE0019748
:10221000F1F700C000002197F0CF70E060E0893353
:1022200011F460E570E00C94F610882321F00E9410
:10223000AD180C94ED180895882321F00E94B3186E
:102240000C94ED180895BF92CF92DF92EF92FF9217
:102250000F931F93CF93DF937C01D62FC72FFC01E1
:102260001281058102950F700E948218D82E882352
:10227000A1F0D12E112389F08C2F807F803429F09A
:1022800080E28D0FD12C883040F082E00E943E1910
:102290000E94821891E0D82ED926CC2EC2949FE0BD
:1022A000C922FBE0FC1598F1EC2DF0E0E15CFA4D61
:1022B0000C94E1240C2F0F70C07F11F00295007F69
:1022C0001123A9F0002359F080E28D0F883010F01F
:1022D000D11109C0802F0E94AD180E94ED188D2FDA
:1022E0000E94941014C0802F0E94BD18F6CF8D2F2D
:1022F0000E94C710002359F080E28D0F883010F043
:10230000D1112BC0802F0E94B3180E94ED18EC2D24
:10231000E850FF0B349720F40E94230F0E94EF0334
:10232000DD2009F46CC10E947E1880FD68C1F701B0
:1023300012820E9478180E940117C7010E94201380
:102340000E947818DF91CF911F910F91FF90EF902D
:10235000DF90CF90BF900C942217802F0E94C3185B
:10236000D4CF2C2F2F70B22EC07FC03219F0B29470
:1023700080EFB822DD2339F0D13019F1112361F15A
:10238000002321F1ACCF112381F0011106C00E947E
:10239000D0188B290E941511BACF0130C1F70E94C5
:1023A000D0188B290E94D618B2CF011106C00E9406
:1023B000E3188B2D0E941C11AACF013009F4A7CF7E
:1023C000F6CF112329F0063008F0A1CF8B2DE2CFF4
:1023D000053008F09CCFEDCF002359F3D93349F4F1
:1023E0003FEF87EE93E0315080409040E1F700C02E
:1023F00000008D2F0E94C7108ACF8D2F112329F046
:102400000E946B090E943E0A82CF0E94C509FACF42
:102410008C2F837009F041C0111179CF4D2F429557
:1024200046954770440F440F0D2F0F7010E030E0B9
:1024300020E0042E04C0000F111F221F331F0A9436
:10244000D2F760E070E0CB01D4FF0FC06FE070E026
:1024500080E090E004C0660F771F881F991F4A959F
:10246000D2F76095709580959095C695C695C37086
:10247000602B712B822B932BC23049F058F4C13062
:1024800019F00E94B31643CF0E94A11640CF0E94BC
:10249000C5163DCF0E949F163ACF8695112311F0A5
:1024A0008C2F8170882309F432CF4D2F42954695A9
:1024B0004770440F440F0D2F0F7010E030E020E004
:1024C000042E04C0000F111F221F331F0A94D2F7DD
:1024D00060E070E0CB01D4FF0FC06FE070E080E0FF
:1024E00090E004C0660F771F881F991F4A95D2F7A6
:1024F0006095709580959095C695C695C370602B34
:10250000712B822B932BC23049F058F4C13019F053
:102510000E947817FCCE0E946617F9CE0E948A1797
:10252000F6CE0E94DB16F3CECF70112329F08C2F4C
:102530000E9401178D2F2ECF8D2F0E941C118C2FE2
:102540000E942217E4CED23F89F160F4D03FC9F057
:10255000D13F29F1112309F442C00111C0CE8C2FC3
:102560008F7121C0D33F39F1D43FA1F7112369F115
:10257000CF718C2F0E94011763E08C2F0E942319CA
:10258000C6CE112341F0053008F0C1CE8C2F8F71DB
:102590000E944517BCCE063008F0B9CEF7CF8C2F7D
:1025A0008F71112369F20E940117B1CE8C2F8F71A8
:1025B0001123C9F3C5CF112329F08C2F8F710E94ED
:1025C000EC16A5CE0E94E716A2CE81E00E943E192D
:1025D000023008F49CCE82E00E943E1998CE00237F
:1025E00059F0D93309F005CFEFEFF7EE23E0E150D2
:1025F000F0402040E1F7FBCE8C2F8F71A1CFDF910F
:10260000CF911F910F91FF90EF90DF90CF90BF90EF
:1026100008950F931F93CF93DF93EC016881798125
:102620008A810E9440188C010E949C170E949E166D
:10263000B801CE01DF91CF911F910F910C9423111E
:10264000CF93DF93EC018B819C81892B29F08881CA
:10265000998189238F3F59F4DF91CF910895CE015D
:102660000E940913CE01DF91CF910C946F03CE012C
:102670000E9490038111F3CF0E948218882361F396
:102680008A81882349F382E0DF91CF910C943E192F
:102690000E94CA180E94CD180E94ED180E94650B76
:1026A0000C943E0A0E9472180C9448130E94BA18A7
:1026B0000C945213E92FE295EF70E250EE3070F473
:1026C000F0E0E55BFA4D0C94E124803F19F020F432
:1026D000883E20F481E00895843FE1F380E008958E
:1026E000883EC0F3813FD1F7F5CF93FB882780F96F
:1026F00008950E9436180C945A13CF93DF9300D09C
:1027000000D00F92CDB7DEB70F900F900F900F90C3
:102710000F90DF91CF910895CF93DF9300D000D039
:1027200000D0CDB7DEB726960FB6F894DEBF0FBE49
:10273000CDBFDF91CF9108951F93CF93DF93C091C9
:10274000990116E080919A018C1304C0DF91CF911A
:102750001F910895D0E01C9FF0011D9FF00D1124E2
:10276000E556FE4F4081518162817381848195815C
:102770000E948C132196C770E5CF4091CB015091F8
:10278000CC016091CD017091CE018091CF019091EB
:10279000D0010C948C132091990190919A0156E0EC
:1027A000291302C080E0089530E0529FF001539F4A
:1027B000F00D1124E556FE4F7181761306C070812D
:1027C000781303C07281741304C02F5F3F4F2770CA
:1027D000E7CF81E008951F93CF93DF938091D001DD
:1027E000807FA9F48091CD01882389F0809199019F
:1027F000C0919A016091CB017091CC01A091CE0162
:10280000B091CF01D62FD72316E0C81304C0DF91B3
:10281000CF911F91089590E0109711F0DF3F19F4C8
:1028200001968770F2CF189F9001199F300D1124E7
:10283000F901E556FE4F41814713F2CF408146131F
:10284000EFCF42814111ECCF438154814A1B5B0B96
:10285000443B510528F78091D0018F7080618093AF
:10286000D001F901E056FE4F80818F708061808336
:102870008BEC91E00E942013DF91CF911F910C947B
:102880009C138F929F92AF92BF92CF92DF92EF9262
:10289000FF920F931F93CF93DF93CDB7DEB761976E
:1028A0000FB6F894DEBF0FBECDBF8C0185E0F801F6
:1028B000DE011D9601900D928A95E1F7D801EC900A
:1028C0001196FC9011971296CC9012978BECA82E33
:1028D00081E0B82E4091CE015091CF0141155105B4
:1028E00009F461C19091CB012091CC01892F822301
:1028F0008F3F09F458C113968D909C901497D090F7
:10290000CD01F401E41BF50BDD2009F419C1809120
:10291000D001382F307FE43BF10508F0D0C03111F1
:1029200089C0DC2C2F1126C09E1124C0C11022C0EA
:102930008F7080618093D0010E94BD13C5010E94F9
:1029400020138091D001D80115968C938D2D61961E
:102950000FB6F894DEBF0FBECDBFDF91CF911F91B0
:102960000F91FF90EF90DF90CF90BF90AF909F902E
:102970008F9008958114910429F08F2D8E218F3F1F
:1029800009F030C180E080FF15C04C2D6F2D8E2DD9
:102990000E94CB13882371F08BEC91E00E942013EE
:1029A00086E0EBECF1E0DF011D928A95E9F70E94E9
:1029B000BD133EC0892829F08F2D8E218F3F09F04D
:1029C0000EC180E0B82FB170AB2E80FF29C04C2D16
:1029D0006F2D8E2D0E94CB13B82E811121C0ED8654
:1029E000FE868D859E850E943618292F22952F7090
:1029F000223050F0243078F49F7051F0F801958126
:102A0000907F31F4DB2CA2CF9F7011F08823D1F39B
:102A1000805E8830B8F3C8010E942013BA2CF2CF30
:102A2000CC2009F493CF8091D00181608093D001B4
:102A3000D12C8CCF2F1114C09E1112C0C11010C008
:102A400015968C93C8010E94201386E0F801ABEC28
:102A5000B1E001900D928A95E1F70E94BD1376CF07
:102A6000ED86FE868D859E850E947913882319F157
:102A7000CC2009F18091D001803270F02091CB01FF
:102A80003091CC0138872F8319869B868A868C8764
:102A9000CE0107960E94201386E0F801ABECB1E06E
:102AA00001900D928A95E1F70E94EB130E94BD13ED
:102AB000DD24D3944BCFC8010E942013F9CF3111EC
:102AC00012C0782D998A888AA7016C2D89890E9465
:102AD0007D138BEC91E00E94201386E0F5011192AA
:102AE0008A95E9F764CF2F110FC09E110DC0C11058
:102AF0000BC015968C93C8010E94201386E0F50147
:102B000011928A95E9F722CFED86FE868D859E8506
:102B10000E947913882379F2CC2069F28091D00148
:102B2000803208F4B9CF2091CB013091CC013A83A7
:102B300029831B829D828C828E83CE010196AACF2F
:102B4000E43BF10510F5DC2CCC2009F4B4CF2F11B7
:102B50000BC09E1109C086E0F801ABECB1E001901A
:102B60000D928A95E1F7F2CEED86FE868D859E85E3
:102B70000E947913811190CF8091D0018160809360
:102B8000D001C8010E942013E1CE782D998A888A4D
:102B9000A7016C2D89890E947D1386E0D5011D92C5
:102BA0008A95E9F75ACFCC2009F485CFED86FE86C9
:102BB0008D859E850E947913D82E882309F47BCFBA
:102BC00086E0F801ABECB1E001900D928A95E1F757
:102BD0008BEC91E00E948F100E94EB133ECF81E0BE
:102BE0008C25F0CE81E08C25CECE1F93CF93DF9342
:102BF000CDB7DEB72C970FB6F894DEBF0FBECDBFB2
:102C00004F83588769877A878B879C87CE01079681
:102C10000E944114882369F08A859B85892B39F0AD
:102C20004F815885842F85238F3F09F071C016E0AE
:102C30005FC086E0FE013796DE01119601900D928D
:102C40008A95E1F78A859B85892B89F38F81988501
:102C500089238F3F61F320919A0130E0C9010196E9
:102C600087709927409199014817190671F40E94BD
:102C7000561310929A011092990186E0EBECF1E064
:102C8000DF011D928A95E9F7D2CF96E0929FD0019D
:102C9000939FB00D1124A556BE4FFE0131960190B1
:102CA0000D929A95E1F780939A010E949C13BFCFF1
:102CB000819FC001112485569E4F0E944114882394
:102CC000E9F0E09199011E9FF0011124E556FE4FB5
:102CD0004081518162817381848195810E948C132E
:102CE0008091990190E001968770992780939901CE
:102CF0008091990190919A018913DACF2C960FB6A1
:102D0000F894DEBF0FBECDBFDF91CF911F91089524
:102D100069857A858B859C850E948C1388CF089560
:102D20000C948F160E9490166093F3017093F40137
:102D30008093F5019093F6010C94481308950C9438
:102D400092160F931F930091F3011091F4012091BB
:102D5000F5013091F601602B712B822B932B1F9183
:102D60000F910C9492160F931F930091F301109101
:102D7000F4012091F5013091F60160237123822343
:102D800093231F910F910C9492160F931F93009110
:102D9000F3011091F4012091F5013091F6016027C3
:102DA0007127822793271F910F910C9492160C94F0
:102DB0008F160C94D7160E94D9166093EF0170936A
:102DC000F0018093F1019093F2010C94481360E0BC
:102DD00070E0CB010C94DB160F931F9341E050E0A1
:102DE00060E070E08A019B0104C0000F111F221FE8
:102DF000331F8A95D2F7C901B8011F910F910C9426
:102E0000DB160F931F9341E050E060E070E004C0D8
:102E1000440F551F661F771F8A95D2F78091EF01E7
:102E20009091F001A091F101B091F2018A019B0112
:102E3000082B192B2A2B3B2BC901B8011F910F918D
:102E40000C94DB160F931F9341E050E060E070E0BC
:102E500004C0440F551F661F771F8A95D2F7CB0118
:102E6000BA0160957095809590950091EF01109151
:102E7000F0012091F1013091F2016023712382234E
:102E800093231F910F910C94DB160F931F9341E036
:102E900050E060E070E004C0440F551F661F771FCC
:102EA0008A95D2F78091EF019091F001A091F10104
:102EB000B091F2018A019B01082719272A273B2795
:102EC000C901B8011F910F910C94DB160F931F934A
:102ED0000091EF011091F0012091F1013091F20188
:102EE000602B712B822B932B1F910F910C94DB166F
:102EF0000F931F930091EF011091F0012091F101C8
:102F00003091F20160237123822393231F910F914B
:102F10000C94DB160F931F930091EF011091F001B9
:102F20002091F1013091F2016027712782279327C8
:102F30001F910F910C94DB160895E92FEE0FE90F06
:102F4000EE0F8E0F982F977041E001C0440F9A95B5
:102F5000EAF786958695869595E0899FF00111247C
:102F6000EF52FE4F30E020E070E05191DF01119709
:102F7000CB01022E02C0969587950A94E2F78170E4
:102F800081958527842385278C932F5F3F4F25309C
:102F9000310559F70895E92FEE0FE90FEE0F8E0F67
:102FA000982F977086958695869525E0829FF001EB
:102FB0001124EF52FE4F50E040E080E0219130E0DC
:102FC000092E02C0369527950A94E2F7217033271F
:102FD000042E01C0220F0A94EAF7822B4F5F5F4F45
:102FE0004530510559F70895BF92CF92DF92EF9285
:102FF000FF920F931F93CF93DF938C01C090EF014B
:10300000D090F001E090F101F090F2018091F30195
:103010009091F401A091F501B091F601C82AD92A46
:10302000EA2AFB2ACFE1D0E0BC2ED701C6010C2E44
:1030300004C0B695A795979587950A94D2F780FD19
:103040000EC0219788F7B12C8B2DDF91CF911F9166
:103050000F91FF90EF90DF90CF90BF900895B8014F
:103060008C2F0E940B04019761F3EECFCF93DF9377
:10307000EC010E94F417BE01DF91CF910C940B0478
:103080001F93CF93DF93EB0190919801992331F037
:10309000CB01DF91CF911F910C943618882379F0E2
:1030A000CB010E94F417182F682FCE010E949D17A4
:1030B000BE01812FDF91CF911F910C940B04CB01A6
:1030C0000E94CB17182FF4CF682F80911101909197
:1030D00012010C949C1A682F809111019091120199
:1030E0000C94A71A80911101909112010C94B21ABC
:1030F0008091F70185958595859508958091F701D3
:10310000877008959091F701977081E009F480E04D
:1031100008959091410292FB222720F9281751F03F
:1031200080FB92F99093410280914002909141027C
:103130000C947D1908958091410282FB882780F9C3
:1031400091E089270C94891881E00C94891880E01B
:103150000C94891880911B02089590911B02892B71
:1031600080931B020895809590911B029823909361
:103170001B02089510921B02089590911A02892B48
:1031800080931A020895809590911A029823909343
:103190001A02089510921A020895109219020895C1
:1031A0008091F801089508950C94D31890914102EC
:1031B00092FD08C09091F801981721F08093F801D2
:1031C0000C94D41808958091F801882329F0109266
:1031D000F80180E00C94D4180895E0911101F09169
:1031E000120180911B028083E0911101F091120184
:1031F000808190911A02892B8083E0911101F091D6
:103200001201808190911902892B80839091F8019D
:10321000992381F0E0911101F09112018081892BB5
:10322000808380911101909112010E94081A8111EE
:103230000E94E31880911101909112010C942F0FBC
:1032400008950C9420199091410292FD10C098E0CD
:10325000899F90011124622B6093F7010E9401174E
:103260008091F7018595859585950C9421190C948D
:1032700001171092F70180E00C9421199091F70149
:10328000809589238093F701282F277039F4282F00
:10329000082E000C330B9217130621F49091410273
:1032A00092FF07C08595859585950E9422170C94FD
:1032B0003919089580E0089590E080E00E94032588
:1032C00021E08A3E9E4F09F020E0822F089582E09F
:1032D00090E00C94FB2483E090E00C94FB24CF93CB
:1032E00084E090E00E94FB24C82F82E290E00E94DC
:1032F000FB24982F8C2FCF910895CF93C92F682F3F
:1033000084E090E00E9409256C2F82E290E0CF914A
:103310000C940925AB01BC018FE090E00C941B25B7
:10332000AB01BC0183E190E00C941B2560E070E0F0
:10333000CB010C94901960E070E0CB010E948A19D7
:103340000C9496196AEE7EEF90E080E00E942725AB
:1033500060E082E090E00E94092560E083E090E078
:103360000E9409251092F3011092F4011092F501C8
:103370001092F60160E084E090E00E94092560E090
:1033800082E290E00E94092560E085E090E00E94E2
:10339000092560E086E090E00E9409256FEF87E054
:1033A00090E00E94092540E050E0BA0188E090E0FA
:1033B0000E941B2560E08DE090E00E94092540E01E
:1033C00050E0BA0188E190E00E941B2560E087E1AF
:1033D00090E00E94092540E050E0BA018CE190E0C5
:1033E0000E941B2570E060E080E290E00E942725AB
:1033F00040E050E0BA0188E190E00E941B250C9467
:103400009B190C94A219682F8EE090E00C9409256A
:10341000FC01329680913801882321F0809140028E
:103420009EE187FF96E080E0915008F40895219195
:103430002223D1F38F5FF8CF662301F12091380169
:103440002223F1F02091400227FF1AC0462F469513
:10345000469546954E3190F4677021E030E002C009
:10346000220F331F6A95E2F7840F911DFC018281C0
:1034700090E02823392381E0232B69F480E008952C
:10348000FC01329608962191261721F0E817F907DA
:10349000D1F7F4CF81E008959C01FC0132969FEFB3
:1034A00080E04191461751F09F3F19F4411101C04E
:1034B000982F8F5F8630A9F79F3F09F40895290F51
:1034C000311D97FD3A95F90162830895FC0132960A
:1034D00008962191261303C0DF0111971C92E8176B
:1034E000F907B9F70895E62FE695E695E695EE31EA
:1034F00068F4E80FF92FF11D677021E030E001C09A
:10350000220F6A95EAF78281822B82830895E62F43
:10351000E695E695E695EE3170F4E80FF92FF11D8A
:10352000677021E030E001C0220F6A95EAF720952C
:10353000828128232283089520913801222329F0B3
:103540002091400227FD0C94731A0C944C1A209180
:103550003801222329F02091400227FD0C94871A7C
:103560000C94661AFC01329680913801882351F040
:103570008091400287FF06C08EE1DF011D928A958F
:10358000E9F7089586E0F9CF089508950C94C51AD7
:1035900080916202843049F10E94C61A80E00E9444
:1035A000EF0310921D0288E190E020E40FB6F8943A
:1035B000A895809360000FBE2093600083B7817F41
:1035C000846083BF83B7816083BF7894889583B715
:1035D0008E7F83BF0FB6F894A895809160008861B4
:1035E00080936000109260000FBE08950895CF93FD
:1035F0000E94C41A0E94BB060E94F61AC0E08C2FDB
:103600000E94E805811105C0CF5FC830C1F7CF9196
:10361000089581E0FCCF08950C940B1B0E94561373
:103620000E94230F0E94EF030C940C1B1F921FB6E5
:103630001F9211248F939F93AF93BF9380911D028C
:10364000811113C08091540290915502A0915602AD
:10365000B09157024196A11DB11D809354029093E1
:103660005502A0935602B0935702BF91AF919F911C
:103670008F911F901FBE1F90189582E084BD93E02C
:1036800095BD9AEF97BD80936E0008952FB7F8947B
:103690008091540290915502A0915602B091570228
:1036A0002FBF08952FB7F89460915402709155027E
:1036B00080915602909157022FBF08959C014FB7F9
:1036C000F8948091540290915502A0915602B091C5
:1036D00057024FBF821B930B089578941F921FB619
:1036E0001F9211248F939F93AF93BF9380915402A5
:1036F00090915502A0915602B09157020196A11DDA
:10370000B11D8093540290935502A0935602B0933A
:103710005702BF91AF919F918F911F901FBE1F9035
:103720001895109258021092590210925A02109253
:103730005B020895CF92DF92EF92FF926B017C01C2
:103740000E94740781110EC00E94521BC61AD70A2C
:10375000E80AF90AC0925802D0925902E0925A023D
:10376000F0925B02FF90EF90DF90CF9008950F935F
:103770001F930E947407882321F01F910F910C94CE
:10378000521B0E94521B0091580210915902209125
:103790005A0230915B02600F711F821F931F1F91AD
:1037A0000F91089589E0E3E0F0E080935700E49101
:1037B000F0E0CF018670892B51F180E09FE3909378
:1037C0005D0280935C0281E08093E00080E2809360
:1037D000D8001092C9008FE19EE40197F1F700C074
:1037E000000087E090EBDC0180936B0290936C0209
:1037F000A0936D02B0936E0288E19CE00FB6F8943E
:10380000A895809360000FBE90936000FFCF80E08A
:103810009EE3E2FDD4CF80E09CE3E1FDD0CF80E0E9
:1038200098E3CDCF909351018093500108958091FA
:103830003E02089508959C0182E08093E9009FEF85
:103840008091E800915085FD06C085ED8A95F1F7DD
:1038500000009111F5CF8091E80085FF0CC050E089
:1038600040E066E070E0C9010E94851E8091E8009A
:103870008E778093E8000895CF93DF93EC018091D9
:1038800038018823B1F18091400287FF32C060E2A5
:1038900082E08093E9008FEF9091E800815095FDE0
:1038A00006C095ED9A95F1F700008111F5CF809152
:1038B000E80085FF1BC08091380170E050E040E0D7
:1038C000811104C050E040E068E070E0CE010E9449
:1038D000851E8091E8008E778093E80080E2FE01EB
:1038E000AEE1B2E001900D928A95E1F7DF91CF91C0
:1038F000089568E081E0CDCF089580916102811143
:1039000009C00E9415200E9472208091E20084600C
:103910008093E20008951092610208950895089539
:10392000089542E061EC81E00E94911F42E261EC67
:1039300082E00E94911F42E061EC83E00E94911FAF
:1039400042E160E885E00E94911F42E161E884E085
:103950000C94911F80916402833009F460C048F494
:103960008130C9F1823009F4A2C083E191E00C9466
:10397000FD238A3009F48AC08B3009F46DC0893088
:10398000A1F780916302813281F780916702909163
:103990006802029750F78091E800877F8093E800E3
:1039A0008091E80082FF36C09091F3008091F20090
:1039B000029729F48091F1008B7F813021F480916E
:1039C000F10080933E028091E8008B778093E800BD
:1039D0000E94C51FCACF80916302813A31F680915F
:1039E000E800877F8093E8008091670290916802E9
:1039F000892B61F460E28EE192E070E00E94D41EB7
:103A00008091E8008B778093E800AFCF60E090E092
:103A100080E0F3CF809162028111C2CF089580913E
:103A20006302813A09F0A1CF809167029091680208
:103A3000892B09F09ACF8091E800877F8093E80076
:103A40008091E80080FFFCCF809138018093F100E5
:103A50008091E8008E77BACF80916302813209F0BD
:103A600084CF8091670290916802892B09F07DCF05
:103A70008091E800877F8093E8000E94C51F8091B5
:103A80006502809338010E9456136FCF80916302C4
:103A9000813209F06ACF8091E800877F8093E80047
:103AA0000E94C51F8091660280933F025ECF809185
:103AB0006302813A09F059CF8091E800877F8093B3
:103AC000E8008091E80080FFFCCF80913F02BECFEC
:103AD00082E090E0909326018093250183E191E0BC
:103AE0000C94B4230895CF93DF9383E191E00E9477
:103AF0005B23EC01209719F4DF91CF91089583E1C6
:103B000091E00E9484230E94721D2197F3CFCF93EE
:103B1000C091E9002091EC00922F917020FD90E877
:103B20002091230120FF12C0CF70C92B9091140166
:103B30009F709093E9009091EB0090FF04C09091EA
:103B4000EE0097FD05C0CF70C093E900CF910895B6
:103B50009FEF2091E800915025FD06C025ED2A95A4
:103B6000F1F700009111F5CF8093F10083E191E02E
:103B70000E9416238091E80080FFE5CF8091E80045
:103B80008E778093E800DFCF84B7877F84BF0FB63E
:103B9000F894A895809160008861809360001092ED
:103BA00060000FBE80E890E00FB6F894809361004B
:103BB000909361000FBE0E94A40F0E9415200E94E6
:103BC00072208091E20084608093E20078940E94E9
:103BD000FB220E94B60F8EE291E00E941E0F0E940F
:103BE000681D809162028530C9F00E94C00F0E945A
:103BF000731D83E191E00E9444230E94B20FF1CF34
:103C00000E94C81A80916002882341F00E94F71A2E
:103C1000882321F00E946F1E0E9456138091620239
:103C2000853071F30E940E1BE0CF0C94171E292FD4
:103C300033272330310519F168F42130310509F4B7
:103C400044C02230310509F445C090E080E030E006
:103C500020E025C02132310549F122323105A9F792
:103C600080E490E02EE735E061157105C1F084E84D
:103C700090E02AEF34E06130710589F0E6CF9927B2
:103C80008130910581F0009729F00297F1F6ECE47C
:103C9000F4E002C0ECE6F4E0849190E09F01FA01C8
:103CA000318320830895EAE5F4E0F6CF89E090E0DF
:103CB00022E834E06115710591F389E090E02BE989
:103CC00034E06130710559F3C0CF82E190E028EE15
:103CD00034E0E5CF88E790E020E734E0E0CF80E112
:103CE00089BD82E189BD09B400FEFDCF8091D80075
:103CF0008F7D8093D8008091E00082608093E00007
:103D00008091E00081FDFCCF0895AF92BF92CF92E9
:103D1000DF92FF920F931F93CF93DF936C01EB0120
:103D20008A010E94E41FF82E811123C0011511059C
:103D300039F0F80180819181C81BD90BC80ED91EBA
:103D4000B12CA12C2097A9F08091E80085FD22C01C
:103D50008091E8008E778093E80001151105A1F0AD
:103D6000F80180819181A80EB91EB182A08285E000
:103D7000F82E8F2DDF91CF911F910F91FF90DF9043
:103D8000CF90BF90AF9008950E94E41F8823D1F296
:103D9000F82EEFCFF60181916F018093F10021970A
:103DA000FFEFAF1ABF0ACECFFC018091690290915C
:103DB0006A0286179707A0F06115710529F49091A2
:103DC000E8009E779093E80090E06115710551F44A
:103DD000911108C08091E80082FF34C080E008950E
:103DE000BC01F2CF809162028823C1F18530C1F11C
:103DF0008091E80083FD30C08091E80082FDEACF29
:103E00008091E80080FFE1CF8091F3002091F200E3
:103E1000382F6115710519F02830310558F091E0FF
:103E20002830310509F090E02091E8002E772093AA
:103E3000E800CBCF81918093F100615071092F5F31
:103E40003F4FE7CF80916202882341F0853041F0F7
:103E50008091E80083FFBECF81E0089582E008955D
:103E600083E00895FC018091690290916A028617AF
:103E70009707A0F06115710529F48091E8008E770D
:103E80008093E80090E06115710551F4911108C02C
:103E90008091E80082FF35C080E00895BC01F2CF38
:103EA000809162028823C9F18530C9F18091E800D0
:103EB00083FD31C08091E80082FDEACF8091E80067
:103EC00080FFE1CF8091F3002091F200382F61153F
:103ED000710519F02830310558F091E0283031058E
:103EE00009F090E08091E8008E778093E800CBCFD6
:103EF00084918093F1003196615071092F5F3F4F9B
:103F0000E6CF80916202882341F0853041F08091B4
:103F1000E80083FFBDCF81E0089582E0089583E04B
:103F20000895982F973028F08F708093E90081E0F2
:103F300008959093E900242F762F50E0981731F0E0
:103F40007091EC002091ED005091F00021FD02C035
:103F50009F5FE8CF3091EB003E7F3093EB003091D4
:103F6000ED003D7F3093ED003091EB0031603093F8
:103F7000EB007093EC002093ED005093F000209143
:103F8000EE0027FDE5CF80E008958091630287FF72
:103F900013C08091E80082FF06C08091E8008B7713
:103FA0008093E80004C0809162028111F2CF0895ED
:103FB000809162028823D9F38091E80080FFF8CFD6
:103FC0008091E8008E77ECCF2091E4003091E500FD
:103FD00095E6A9012091EC00822F817020FF06C098
:103FE0008091E80080FF06C080E008952091E800FD
:103FF00022FD1AC080916202882389F0853089F001
:104000008091EB0085FD0FC02091E4003091E50028
:1040100042175307F9F29150E1F684E0089582E0E7
:10402000089583E0089581E008950E9483200E940E
:104030008B20E0EEF0E0808181608083E8EDF0E0AD
:1040400080818F77808319BCA7EDB0E08C918E7F43
:104050008C9380818F7E80831092610208950F93EC
:104060001F93CF93DF930E9483200E948B20C8ED83
:10407000D0E088818F778883888180688883888171
:104080008F7D888319BC1092620210925E0210929A
:10409000600210925F0200EE10E0F80180818B7FD9
:1040A000808388818160888342E060E080E00E94B4
:1040B000911FE1EEF0E080818E7F8083E2EEF0E000
:1040C000808181608083808188608083F801808125
:1040D0008E7F8083888180618883DF91CF911F915B
:1040E0000F910895E8EDF0E080818F7E8083E7ED09
:1040F000F0E080818160808384E082BF81E08093F2
:1041000061020C942F20E8EDF0E080818E7F8083A7
:104110001092E20008951092DA001092E1000895E2
:104120001F920F920FB60F9211242F933F934F932C
:104130005F936F937F938F939F93AF93BF93EF930F
:10414000FF938091E10082FF0BC08091E20082FF2B
:1041500007C08091E1008B7F8093E1000E94FA22EA
:104160008091DA0080FF19C08091D80080FF15C0CF
:104170008091DA008E7F8093DA008091D90080FFF1
:1041800096C080E189BD82E189BD09B400FEFDCF02
:1041900081E0809362020E947D1C8091E10080FF9B
:1041A00019C08091E20080FF15C08091E2008E7FEF
:1041B0008093E2008091E20080618093E200809130
:1041C000D80080628093D80019BC85E08093620299
:1041D0000E948F1C8091E10084FF2BC08091E2003F
:1041E00084FF27C080E189BD82E189BD89B5982F10
:1041F000917080FFFBCF8091D8008F7D8093D80095
:104200008091E1008F7E8093E1008091E2008F7EBB
:104210008093E2008091E20081608093E2008091CF
:104220005E02882309F449C084E0809362020E9400
:10423000901C8091E10083FF29C08091E20083FF00
:1042400025C08091E100877F8093E10082E0809328
:10425000620210925E028091E1008E7F8093E10005
:104260008091E2008E7F8093E2008091E200806185
:104270008093E20042E060E080E00E94911F809124
:10428000F00088608093F0000E948E1CFF91EF91F7
:10429000BF91AF919F918F917F916F915F914F915E
:1042A0003F912F910F900FBE0F901F90189519BC42
:1042B000109262020E948B1C70CF8091E30087FDF8
:1042C00093E090936202B3CF1F920F920FB60F92BA
:1042D00011242F933F934F935F936F937F938F930B
:1042E0009F93AF93BF93CF93DF93EF93FF93D091BF
:1042F000E900DF708091EC00C82FC17080FDC0E83C
:104300001092E9008091F000877F8093F00078940C
:104310000E94A8211092E9008091F00088608093AB
:10432000F000CD2BCF70C093E900FF91EF91DF91AA
:10433000CF91BF91AF919F918F917F916F915F913D
:104340004F913F912F910F900FBE0F901F90189596
:104350001F93CF93DF93CDB7DEB7AA970FB6F8942C
:10436000DEBF0FBECDBF83E692E02091F100FC01DD
:104370002193CF01F2E08B369F07B9F70E94AA1C68
:104380008091E80083FF1EC18091630290916402D6
:104390009A3008F017C1E92FF0E0E75AFA4D0C9473
:1043A000E124803899F0823809F00CC180916702CD
:1043B0008F70873008F006C18093E9008091EB0090
:1043C00085FB882780F91092E90006C080915F0282
:1043D00090916002911182609091E800977F909394
:1043E000E8008093F1001092F1008091E8008E7750
:1043F000E5C0882309F4D3C0823009F0E3C080917E
:1044000065028111D6C0809167028F702FEF280F4F
:10441000263008F0D7C08093E9002091EB0020FF00
:10442000C8C0933031F48091EB0080628093EB0040
:10443000C0C09091EB0090619093EB0021E030E0E0
:1044400001C0220F8A95EAF72093EA001092EA0051
:104450008091EB008860EACF8111B4C010916502B1
:104460001F778091E3008078812B8093E300809117
:10447000E800877F8093E8000E94C51F8091E800D4
:1044800080FFFCCF8091E30080688093E30082E0AE
:10449000111183E08093620295C08058823008F049
:1044A00091C080916502909166028C3D23E0920755
:1044B000A1F583E08A838AE289834FB7F894DE010D
:1044C000139620E03EE051E2E32FF0E050935700D6
:1044D000E49120FF03C0E295EF703F5FEF708E2FF5
:1044E00090E0EA30C0F0C7968D939D932F5F243102
:1044F00059F74FBF8091E800877F8093E8006AE218
:1045000070E0CE0101960E94D41E8091E8008B7766
:104510008093E80057C0C096E7CF60916702709122
:104520006802AE014F5F5F4F0E94151EBC01892BD0
:1045300009F448C09091E800977F9093E800898142
:104540009A810E94321FE1CF8038E1F58091E80026
:10455000877F8093E80080915E028093F10045CFD1
:10456000811130C090916502923060F58091E80031
:10457000877F8093E80090935E020E94C51F809120
:104580005E02882311F084E005C08091E30087FD7E
:10459000FACF81E0809362020E94911C13C0809147
:1045A0006502813079F481E0933009F080E08093F6
:1045B00060021092E9008091E800877F8093E80014
:1045C0000E94C51F8091E80083FF0AC08091E80027
:1045D000877F8093E8008091EB0080628093EB00FE
:1045E000AA960FB6F894DEBF0FBECDBFDF91CF9174
:1045F0001F9108950895CF93809162028823A1F0BE
:10460000C091E900CF709091EC00892F817090FDEE
:1046100080E8C82B1092E9008091E80083FD0E9499
:10462000A821CF70C093E900CF9108952091620234
:10463000243041F5FC014489558966897789452BE9
:10464000462B472BF9F081818F708093E900909180
:10465000F3008091F200892B11F480E0089590918D
:10466000E8008091E8008E778093E80095FDF5CF13
:104670000E94E41F811107C09091E8009E779093FB
:10468000E800089582E0089520916202243091F4B8
:10469000FC014489558966897789452B462B472B30
:1046A00049F021812F702093E9002091E80020FD3E
:1046B0000C941623089520916202243019F090E0A2
:1046C00080E00895FC014489558966897789452BE6
:1046D000462B472BA1F386818F708093E900809150
:1046E000E80082FFECCF9091F3008091F2000097F8
:1046F00031F42091E8002B772093E8000895909101
:10470000F3008091F200089520916202243019F0A4
:104710008FEF9FEF0895FC01448955896689778959
:10472000452B462B472BA1F386818F708093E900A0
:104730008091E80082FFECCF9091F3008091F2002D
:10474000892B79F08091F10090E03091F300209175
:10475000F200232B29F42091E8002B772093E80026
:1047600008958FEF9FEFF1CF0F931F93CF93DF93B8
:10477000CDB7DEB728970FB6F894DEBF0FBECDBF1A
:104780008C0180916202843059F5F8018489958901
:10479000A689B789892B8A2B8B2B11F183858F7082
:1047A0008093E90088E0E9E3F1E0DE0111960190F1
:1047B0000D928A95E1F750E040E068E070E0CE01AC
:1047C00001960E94851E50E040E062E070E0C80162
:1047D00042960E94851E8091E8008E778093E800C3
:1047E00028960FB6F894DEBF0FBECDBFDF91CF91F4
:1047F0001F910F91089508950895CF93DF93EC01D1
:104800008091E80083FF10C0288180916702909119
:1048100068022817190641F4809164028132F1F090
:1048200030F4803209F450C0DF91CF910895823284
:1048300009F47EC08332C1F7809163028132A1F70F
:104840008091E800877F8093E8000E94C51F6091F7
:104850006502CE01DF91CF910C94FC23809163021D
:10486000813A11F78091E800877F8093E80080917A
:10487000E80080FFFCCF8C899D89AE89BF89809339
:10488000F100492F5A2F6B2F77274093F100AD018C
:10489000662777274093F1008B2F9927AA27BB27FC
:1048A0008093F100888D8093F100898D8093F100D1
:1048B0008A8D8093F1008091E8008E778093E800E4
:1048C000DF91CF910C94C51F80916302813209F072
:1048D000ABCF8091E800877F8093E8008091E8006B
:1048E00082FF21C03091F1002091F1009091F10000
:1048F0008091F1003C8B2D8B9E8B8F8B8091F100F2
:10490000888F8091F100898F8091F1008A8F80914A
:10491000E8008B778093E8000E94C51FCE01DF91ED
:10492000CF910C94FB23809162028111D7CF7CCF71
:1049300080916302813209F077CF8091E800877F10
:104940008093E8000E94C51F8091650290916602E5
:10495000998B888BCE01DF91CF910C94FB230E9421
:104960001520109262020895E8EDF0E080818061E8
:1049700080838AE18A95F1F700C08091D900817027
:104980000895991B79E004C0991F961708F0961BAB
:10499000881F7A95C9F78095089597FB072E16F41E
:1049A000009407D077FD09D00E94E72407FC05D0CA
:1049B0003EF4909581959F4F0895709561957F4F36
:1049C0000895EE0FFF1F0590F491E02D0994AA1BA6
:1049D000BB1B51E107C0AA1FBB1FA617B70710F0EA
:1049E000A61BB70B881F991F5A95A9F7809590951C
:1049F000BC01CD010895F999FECF92BD81BDF89A11
:104A0000992780B50895A8E1B0E042E050E00C9409
:104A10002F25262FF999FECF92BD81BDF89A0197D7
:104A200000B4021639F01FBA20BD0FB6F894FA9AF6
:104A3000F99A0FBE08950396272F0E940A250E9417
:104A40000925252F0E940A25242F0C940A2501965A
:104A5000272F0E940A250C940925DC01CB01FC01BB
:104A6000F999FECF06C0F2BDE1BDF89A319600B4C7
:104A70000D9241505040B8F70895F894FFCF5A1165
:104A80005A11B111B1118711FD1187118711081247
:104A90009412A312A312651365136E136E13701391
:104AA0006E136E136E136513651375136E136E1309
:104AB0007513D121F921E222F921E2222C224D2283
:064AC000E222A422B02254
:104AC600012808641E140A321E7601047701047B4D
:104AD60001F901028410000001051000000183089D
:104AE6000000010000000000000000000000171C8C
:104AF6003C1C1B1C1A1C7C1C01A12000000000028F
:104B060000F4F5F6F73133946697C600000000000E
:00000001FF
