:100000000C9458020C94280B0C949F020C949F02A1
:100010000C949F020C949F020C949F020C949F02DC
:100020000C949F020C949F020C94061E0C94D91EF3
:100030000C940A190C949F020C949F020C949F023A
:100040000C949F020C949F020C949F020C949F02AC
:100050000C949F020C9455190C949F020C949F02CF
:100060000C949F020C949F020C949F020C949F028C
:100070000C949F020C949F020C949F020C949F027C
:100080000C949F020C949F020C949F020C949F026C
:100090000C949F020C949F020C949F020C949F025C
:1000A0000C949F020C949F020C949F02000000008D
:1000B000000000000000000000003400360037009F
:1000C00013001C00000004641268086218610C0030
:1000D0000000330014000D000E001B0000000000A3
:1000E00029422841000013500000000000000000D9
:1000F0000000000000000F00150006000A000900C3
:1001000000001664116817620B61070000001D00F3
:1001100019001A0010000500000000002A422C41BE
:100120002B00145000000000000000000000000040
:10013000000036022F0226022F0000000000E2001D
:10014000E300E100E0000000000037023002270277
:10015000300000000000000001000100010000006C
:1001600000000000000000000000000000004D0042
:10017000490249014A00000000004F0052005100AE
:100180005000000000004D00000000004A00000088
:10019000000000000100010001000000000000005C
:1001A0000000000000000000000035022D022E02B9
:1001B00031000000000035642D682E6238610000B7
:1001C000000000000000000000000000000000002F
:1001D000010001000100000000000000000000001C
:1001E00000000000000000002600250024000000A0
:1001F00000002764236822622161000000000000E3
:1002000020001F001E00000000000000010001008F
:100210000100000029001E001F0020002100220014
:100220002B0014001A00080015001700E10004005C
:100230001600070009000A00E1001D001B0006006F
:10024000190005000000000028002C00E00000005C
:100250001050270026002500240023000000130072
:1002600012000C0018001C00000033000F000E00EC
:100270000D000B00000037003600100011000500D3
:100280000000000028002C00E0000000000000003A
:1002900000000000000000000000015A015A015A4D
:1002A000015A00000551075A095A0B5A0D5A115AA2
:1002B0000551085A0A5A0C5A0E5A125A00000000E8
:1002C0000F5A105A015A00001050000000000000A0
:1002D000000000000000015A015A015A015A0000B2
:1002E000225A205A1E5A1C5A1A5A165A295A215A48
:1002F0001F5A1D5A1B5A175A00000000195A185A43
:10030000015A000000000000000000000000000092
:1003100000000000000000000000000000000000DD
:1003200000000000000000000000000000000000CD
:1003300000000000000000000000000000000000BD
:1003400000000000000000000000000000000000AD
:1003500000000000000000000000210020001F003D
:100360001E000000000025002400230022000000E1
:1003700000000000270026000000000000D0D0D0C0
:10038000D0D0D00101020408102041424448480066
:100390000000484850608182848890A0C1C2C4D0C7
:1003A000D0D0D0D0D0C80000000000000000000075
:1003B0000000000000000000000000000403300006
:1003C000000026034B0065006500620069006F00B5
:1003D000200049007200690073002000520065008F
:1003E00076002E002000340000000E034B00650054
:1003F0006500620069006F0000000403090409023F
:100400005F00030100A0FA090400000103010100DC
:100410000921110100012240000705810308000A9B
:10042000080B01020202010009040100010202019D
:10043000000524001001042402020524060102071D
:100440000582030800FF09040200020A00000007F9
:1004500005040210000507058302100005120110B3
:1004600001EF02010810CB5642000401020301050E
:10047000010906A101050719E029E71500250195E5
:100480000875018102950175088101050719002988
:10049000FF150026FF009506750881000508190163
:1004A0002905950575019102950175039101C0001B
:1004B00011241FBECFEFDAE0DEBFCDBF04B603FECE
:1004C00027C08091380290913902A0913A02B091F0
:1004D0003B028730904BA740B04BD1F410923802CA
:1004E0001092390210923A0210923B0214BE84B765
:1004F000877F84BF0FB6F894A895809160008861CB
:1005000080936000109260000FBEE0E0F8E3099570
:1005100011E0A0E0B1E0E2E6F5E402C005900D9242
:10052000AA35B107D9F722E0AAE5B1E001C01D92D2
:10053000A833B207E1F70E94461B0C9479220C9471
:10054000000060E070E0CB010E94EF170C94FB17F5
:1005500081E0089581E008950C94AA0208950C9416
:10056000AE021F93CF93DF9300D000D00F92CDB790
:10057000DEB749835A836B833091A00189819A81C8
:1005800031111DC06623B9F02223A9F00E94721612
:10059000182F682F89819A810E94191669817A81A2
:1005A000812F0F900F900F900F900F90DF91CF91B0
:1005B0001F910C9469030E944816182FEFCF0E94D8
:1005C000721669817A81EDCFFC01262F408151811D
:1005D0006281738184810C94B102CF93DF93D82F11
:1005E000C92F60E00E94E4026D2F7C2FDF91CF9134
:1005F0000C94AF020E94C117811102C00E945718CB
:100600000C944E050C94510508950C94040381E05C
:1006100008950C940703CF93C82F0E9405038C2FD5
:10062000CF910C94090308950E94E90D0E941303D1
:100630002FEF84E39CE0215080409040E1F700C020
:1006400000000C9479190F931F93CF93DF93EC0163
:1006500061E00E94E4028C01BE010E94AC0288238A
:1006600059F1BE01C8010E94CF07882329F1BE01BC
:10067000C8010E9439098823F9F0BE01C8010E940F
:100680007D098823C9F0BE01C8010E94500A882351
:1006900099F08A81882339F001158CE5180751F00B
:1006A0000E3D1C4579F0CE01DF91CF911F910F9146
:1006B0000C94A8020E94140380E0DF91CF911F9157
:1006C0000F9108950E945718F7CF90E080E00895A9
:1006D0000895972F70E026E0929F600D711D112400
:1006E000FB019CE3899FE00DF11D1124EE0FFF1F1C
:1006F000E455FF4F859194910895FC01EE0FFF1F83
:10070000E458FC4F859194910895CF93DF930E9414
:1007100069030E947204EC01811522E5920708F03A
:1007200057C0811531E5930708F0B1C0811540E34A
:10073000940718F5C11580E2D80708F09FC0C03EA5
:10074000D10578F4C03CD10508F091C0C130D10585
:1007500081F0CE010497813A910558F0D0E0C0E0D5
:1007600008C0C83ED10528F0CE019A9581159F4159
:10077000A8F7CE01DF91CF910895811530E5930759
:1007800058F4811540E4940708F07EC09927D3FD02
:1007900078C0EC01D06CEDCFE4E096958795EA95B2
:1007A000E1F783702C2F26952695237090E2299FE0
:1007B00090011124382B8C2F8370C1E0D0E002C04F
:1007C000CC0FDD1F8A95E2F7C22BD32BDC68D1CF8B
:1007D000811526E5920728F5811535E5930708F080
:1007E0006AC0811544E59407B8F4869586959E0104
:1007F00023703327C115D34508F04EC0C1E0D0E0C7
:1008000002C0CC0FDD1F2A95E2F720E2829FC001D3
:100810001124C82BD92BDACFD82FCC27C46FD06A9C
:10082000A8CF81153AE5930780F4811549E594072F
:1008300008F04BC098558F3F910511F008F08ECF0E
:10084000DC2FCC27C06FD06A94CF90568115904290
:1008500008F084CF8D2F8F710E940A0590E0982FA9
:10086000882788279F719C012C2BE9012CC0CE0181
:10087000805C91090E947D03EC017BCFCE019F70CB
:10088000F9CFEC01D86C75CFDF70D06A72CFD82F5A
:10089000CC27C16FD06A6DCFC1E0D0E002C0CC0FD1
:1008A000DD1F2A95E2F730E2839FC0011124C82B97
:1008B000D92BDA685ECF0E940A05C82FD0E0DC2F62
:1008C000CC27CC27DF71D06254CF8F700E940A05ED
:1008D00034E0D695C7953A95E1F7CF70DC2FC82F55
:1008E000D06947CF803E910599F1C8F481339105D5
:1008F00009F476C048F48932910509F46AC08A3255
:10090000910509F474C0089589339105D1F08238B6
:100910009105B9F08533910509F454C00895843EDA
:10092000910599F138F4823E9105F9F0833E9105E5
:1009300009F10895863E910599F1873E9105B9F137
:10094000089520911E022370A1F080EE90E008959A
:1009500020911E0220FD52C030911F0230FF09C0BD
:1009600024FF4FC090E080E004C020911E0222FDD1
:10097000F7CF089520911E0222FD46C030911F023C
:1009800030FDE3CF24FFF5CFEDCF20911F0221FFF3
:10099000F0CF80911E0284FDE5CF87EE90E00895B0
:1009A00020911E0223FFE5CF24FDDCCFF6CF20915E
:1009B0001E0223FD2CC030911F0231FFE3CF84EED5
:1009C00090E0089520911E0225FFD3CF89E290E0A8
:1009D000089520911E0225FFCCCF85E390E0089575
:1009E00020911E0226FFC5CF8AE290E00895209153
:1009F0001E0226FFBECF81E390E0089589E390E0D8
:100A0000089583EE90E0089582EE90E0089586EEDA
:100A100090E0089590911E0292FF06C0282F287141
:100A20002830F9F4877F846093FF06C0282F28714F
:100A30002831F1F4877E846120911F0220FF06C0D7
:100A4000382F38713830D9F4877F816021FF06C094
:100A5000282F28712831D1F4877E816194FD877E0B
:100A60000895282F24712430F9F68B7F8860DCCF1D
:100A7000282F2471243101F78B7E8861DDCF382F38
:100A80003171313019F78E7F8860E0CF282F2171C6
:100A9000213121F78E7E8861E1CF08950C944D05B8
:100AA00008950C945005E82FF0E0E65AFE4F80813F
:100AB0000895089580EA8A95F1F7089508950F93AF
:100AC0001F93CF93DF93CDB7DEB760970FB6F8943F
:100AD000DEBF0FBECDBF0E94410780911001811182
:100AE0002AC086E0E1E4F1E0DE01119601900D926A
:100AF0008A95E1F7FE01379684E0DF011D928A9521
:100B0000E9F78AE03697A6E0B1E001900D928A9568
:100B1000E1F786E0E3E5F1E0DE011B9601900D923E
:100B20008A95E1F786E0FE013B96A0E0B1E00190F6
:100B30000D928A95E1F78091100195E0811190E086
:100B40009093700185E0891B80936F0126E031E06E
:100B50004BE051E061E070E0F90181919F01E82FE5
:100B6000E295EF70A1E2AE0FB0E0FC918F708B01C7
:100B700001C0000F8A95EAF7902F90959F239C93D0
:100B8000EE5DF0E08081802B80834217530721F7D0
:100B900020E031E046E051E061E070E0D9018D9164
:100BA0009D01E82FE295EF70A1E2AE0FB0E0FC915D
:100BB0008F708B0101C0000F8A95EAF7902F9095F6
:100BC0009F239C93EE5DF0E08081802B8083421711
:100BD000530721F78AE0E4E6F1E0DF01982F1D9248
:100BE0009A95E9F7EAE5F1E0DF011D928A95E9F7C8
:100BF00085E00E94E6060E94FA0260960FB6F8941D
:100C0000DEBF0FBECDBFDF91CF911F910F910C942E
:100C10004B070E9424078823F9F080916F0190E030
:100C2000865A9E4F0E945E07811113C080916E010B
:100C30008F5F80936E01863050F0E0916F01F0E09D
:100C4000E65AFE4F85E0DF011D928A95E9F70C9484
:100C5000020310926E01FBCF8091700190E0865AE2
:100C60009E4F0E9479070C945E059F92AF92BF92AF
:100C7000CF92DF92EF92FF920F931F93CF93DF9368
:100C800006E011E084E6C82E81E0D82E9BE0E92E34
:100C900091E0F92E912CC1E0D0E0F80181918F0113
:100CA000E82FE295EF70EF5DF0E090818F709E018C
:100CB00001C0220F8A95EAF7892F822B8083F801E1
:100CC00092915F01E92FE295EF70EE5DF0E02081F7
:100CD0009F70AE0102C0440F551F9A95E2F7CA01FA
:100CE0008095822380830E945A05A0E0B1E050E005
:100CF00040E020E03D91E32FE295EF70E05EF0E010
:100D0000808190E03F7002C0959587953A95E2F713
:100D100080FD58C08C2F042E01C0880F0A94EAF77A
:100D2000282B4F5F5F4F4630510521F7F501908129
:100D3000E92FE295EF70EF5DF0E030819F70AE013A
:100D400002C0440F551F9A95E2F7CA01809583238C
:100D50008083F5018081E82FE295EF70EE5DF0E091
:100D600090818F70AE0101C0440F8A95EAF7892FF8
:100D7000842B8083F6018081281731F1208381E064
:100D8000982AFFEFCF1ADF0AE016F10609F085CFA7
:100D90006091700170E0665A7E4F292D45E084E62F
:100DA00091E00E94E7060E940906892DDF91CF910C
:100DB0001F910F91FF90EF90DF90CF90BF90AF9079
:100DC0009F90089580E0ACCF80E0DACF0895FF9245
:100DD0000F931F93CF93DF93F82E092F162FD72F42
:100DE000C42F222349F081E0809373010E943A19B5
:100DF0009093720180937101809173018823A1F017
:100E000080917101909172010E944619069760F0DD
:100E1000EF2DF02FA12FBD2FCF018C0F911DE817C3
:100E2000F90741F410927301DF91CF911F910F9157
:100E3000FF90089521912D93F2CF55985D9889B137
:100E400085FB882780F9089580917401811110C075
:100E50008091D80080618093D8008AE18A95F1F76B
:100E600000C08091D90080FD0AC082E080937401A7
:100E700081E090917401913009F080E0089581E063
:100E8000F5CF0E941D07809310010E942407811155
:100E90000C94520708950E942407811102C00C94FB
:100EA0005807089561E070E081E191E00C94D90A5F
:100EB00061E070E081E191E00C94E00ACF93DF9370
:100EC000D82FC92F0E947A0B9C0180E02115310593
:100ED00069F4ED2FFC2FD901AA58BE4F8C91819354
:100EE0002F5F3F4F25303105B1F781E0DF91CF9182
:100EF0000895FC0190E080E02191DC01AA58BE4FEA
:100F00002C93019685309105B9F70895CF93DF931F
:100F100000D000D00F92CDB7DEB77C838D838C815B
:100F20009D81892B21F04523862F4F3F09F480E0D6
:100F300081700F900F900F900F900F90DF91CF91D5
:100F4000089586E0E3E8F1E0DF01982F1D929A957D
:100F5000E9F7EDE7F1E0DF011D928A95E9F70895E1
:100F60000E94C117811102C00E9457188DE090E0C5
:100F70000E94372280937B010895CF93C82F0E944F
:100F8000A107C0937B016C2F8DE090E0CF910C9472
:100F9000452281E0089581E0089581E00895EF926F
:100FA000FF920F931F93CF93DF937C01EB0180E3BC
:100FB000E8168AE5F806E9F030F4C7019A558A97F1
:100FC000A0F1C1E01DC0F1E3EF16FAE5FF06C9F795
:100FD00081E39AE50E94CD07882389F048815981F1
:100FE0006A817B818C810E948607882341F081E0A1
:100FF00019C080E39AE50E94CD07811109C0C0E0C5
:101000008C2FDF91CF911F910F91FF90EF9008955A
:10101000488159816A817B818C810E94860788235F
:1010200071F380E00E94BD07EACFC7010E94CD079F
:10103000882329F310917B011123F9F0113009F471
:1010400045C000917C012DE731E0412FBE01C70171
:101050000E94CB07882399F2488159816A817B815C
:101060008C810E948607C82F80917C01CC2309F4D3
:1010700058C08F5F80937C01C2CF488159816A81BB
:101080007B818C810E948607F701FF27E458FC4F83
:101090009491A92FA295A695A695A370B0E0882358
:1010A00071F09D012D573E4FF9018081892B80837E
:1010B000A358BE4F8C91E92FE82BEC93C2CFAD57CC
:1010C000BE4FE92FE0958C91E823F7CF48815981F5
:1010D0006A817B818C810E948607482F8E2D67E074
:1010E0000E942522292FE82FF0E086E090E0821B65
:1010F000910921E030E001C0220F8A95EAF7DF0173
:10110000AD57BE4F8C91442341F0822B8C93E35812
:10111000FE4F8081282B208394CF209528232C9369
:1011200090CF815018160CF4A5CF10927C016DE77A
:1011300071E080917B010E94C907882331F0809182
:101140007B01882329F0813099F00E94A10758CFB4
:101150000DE711E0F80181918F0181110E94091BB7
:10116000F1E001381F07B1F780E00E94091BEDCFC5
:1011700080917D01806880937D010DE711E083E817
:10118000E82E81E0F82EF80181918F010E94091B61
:10119000E016F106C1F7D9CF0F931F93CF93DF93DA
:1011A000C62FD42F022FFC0182818823C9F06093BF
:1011B0008B010E943A1990938A018093890180E201
:1011C0008C0F883008F050C0C77081E001C0880FD4
:1011D000CA95EAF7DF91CF911F910F910C94D10D31
:1011E00010918B01161335C08091890190918A016D
:1011F0000E944619843F914060F5C0E2CD0F1D1753
:10120000B9F080E2810F883040F4177081E001C0AE
:10121000880F1A95EAF70E94D80DC83048F481E08B
:101220009D2F977001C0880F9A95EAF70E94D10D03
:10123000802F0E94BE0DC830B8F4D77081E001C085
:10124000880FDA95EAF7DF91CF911F910F910C94F7
:10125000D80D80E28C0F883038F4C77081E001C06F
:10126000880FCA95EAF7EFCFDF91CF911F910F91C9
:1012700008959C01CB01233F4CE5340769F190F4BC
:10128000283DFCE53F0721F1293D4CE5340781F17C
:10129000273D3C45B1F0FC018281882361F1109229
:1012A0008B010895253FFCE53F07D1F0263F4CE533
:1012B0003407D1F0243F3C4571F727E245EE64EE58
:1012C00003C026E241EE61EE0E94CC0880E0089562
:1012D00027E245EE65EEF8CF26E241EE60EEF4CF70
:1012E00026E241EE62EEF0CF27E245EE66EEECCF6D
:1012F00028E241E0EFCF81E00895CF93DF93EC0146
:10130000FB018281882309F4C9C0C631FCE5DF07EF
:10131000E0F4C2309CE5D907F0F00E94D417909316
:101320001F0280931E02C631ECE5DE0720F5C230B5
:10133000FCE5DF0798F480911E0290911F020E9445
:10134000E2170E94E90D80E006C09E012A5F3C453D
:101350002930310510F3DF91CF910895FE01E3505C
:10136000FC4580911E028160E331F10588F4E55867
:10137000FD4D0C943122CA5FDC45C930D105D8F649
:10138000C257DD4DFE010C94312280911E02826015
:1013900080931E02D0CF80911E028460F9CF80918D
:1013A0001E028860F5CF80911F02816080931F022A
:1013B000C2CF80911F028260F9CF80911E028061AE
:1013C000E7CF80911E028062E3CF80911E0280648D
:1013D000DFCF0E94E90D80911E028068D9CF8091F5
:1013E0001E028C60D5CF80911F028360DFCF809179
:1013F0001E028E7FCDCF80911E028D7FC9CF80913E
:101400001E028B7FC5CF80911E02877FC1CF809146
:101410001F028E7FCBCF80911F028D7FC7CF80911F
:101420001E028F7EB5CF80911E028F7DB1CF80913D
:101430001E028F7BADCF0E94E90D80911E028F7737
:10144000A7CF80911E02837FA3CF80911F028C7F44
:10145000ADCF80911E0282FB992790F921E092275F
:1014600090FB82F990FB83F993CF80911F02982F14
:10147000909591708E7F892B90FB81F997CF0E9478
:10148000E90D90911E02892F97FB87F9805880CF34
:1014900081E00E9459184FCF80E0FBCF81E05BCF05
:1014A000CF93DF93EB0186319C4511F50E940F1716
:1014B0009A81992399F08A7A91E009F490E09093C7
:1014C0008C01811109C089E20E94EA160E945E1710
:1014D00080E0DF91CF91089585E3F6CF80918C0174
:1014E000811104C089E20E94F116F0CF85E3FBCFA1
:1014F00081E0EFCF8EE1489B02C08150E1F7489B2D
:10150000FECF0895589880E28A95F1F7589A089589
:10151000FC013BE03A95F1F798E020E080E031E013
:1015200040E14A95F1F7880F489B02C0816023276C
:1015300042E04A95F1F7000040E14A95F1F79150F9
:1015400079F790E19A95F1F799B132E03A95F1F790
:10155000000040E14A95F1F7917092272081920FA7
:1015600090830895EF92FF920F931F93CF93DF9391
:101570000F92CDB7DEB719828C017C01E60EF11C0B
:101580000E151F0561F481E09981911180E00F90A3
:10159000DF91CF911F910F91FF90EF9008950E94DE
:1015A0007A0ACE0101960E94880AF80181938F0180
:1015B000E7CF90938E0180938D01509A589A0895A9
:1015C00090938E0180938D015098589AE89AE9E69D
:1015D000F0E080818C7F808308956150770B91E0EB
:1015E00001C0990F6A95EAF720E031E0911108C037
:1015F000222391F0589A80E28A95F1F7589808953D
:10160000492F482339F0589A232740E24A95F1F7A9
:101610009695ECCF5898F9CF5898EDCFFF920F934D
:101620001F93CF93DF93EC018C01060F111DC017A0
:10163000D10731F4DF91CF911F910F91FF90089561
:10164000F9900E94820A68E08F2D0E94ED0AEFCF88
:101650001F920F920FB60F9211242F933F934F9327
:101660005F936F937F938F939F93AF93BF93CF932A
:10167000DF93EF93FF935898509AC0918D01D091CA
:101680008E016D81662321F08E819F810E940E0B59
:101690000E94820A80E18A95F1F758985098589AEA
:1016A00080E18A95F1F76A81662309F18B819C813B
:1016B0000E94B20AE881F981882311F088E001C014
:1016C00082E080830E947A0AFF91EF91DF91CF91AF
:1016D000BF91AF919F918F917F916F915F914F914A
:1016E0003F912F910F900FBE0F901F901895E8819A
:1016F000F981E4CFCF93DF93C0918D01D0918E011A
:10170000F894509A589885E08A95F1F7000050981F
:10171000589A80E28A95F1F7489B0CC0509A589AE3
:10172000E881F98181E08083789481E090E0DF9125
:10173000CF9108956D81662381F08E819F810E94F3
:10174000B20A81110AC0509A589AE881F98182E060
:101750008083789482E090E0EACF0E947A0A80E267
:101760008A95F1F75898509A80E18A95F1F76A8145
:10177000662321F08B819C810E940E0B0E94820ABD
:10178000E881F9811082789490E080E0D0CF909346
:101790009401809393010895E0919301F091940155
:1017A000309721F00190F081E02D099480E00895B8
:1017B000E0919301F0919401309721F00280F38140
:1017C000E02D0994089520919101309192012817FC
:1017D000390771F09093920180939101E091930108
:1017E000F0919401309721F00680F781E02D099463
:1017F000089520918F01309190012817390771F0D9
:101800009093900180938F01E0919301F091940166
:10181000309721F00084F185E02D0994089585B773
:10182000806885BF85B7806885BF0895089508954D
:101830000C94160C08950C941A0C0E940F0C0E9424
:10184000170C0C94180C0C9424070E9431190E9458
:101850005F050E949D190E94B0070C941B0CBF925B
:10186000CF92DF92EF92FF920F931F93CF93DF936C
:1018700000D000D00F92CDB7DEB70E9435060E948F
:10188000230C882309F45BC086E9C82E81E0D82E9A
:1018900010E000E0B02E802F0E945305F82EF601D4
:1018A000E1906F01E81609F444C08091180281FDAF
:1018B0000E9459059E2D9F2580E0EE24E394292F58
:1018C0002E2199F18983BA82FE2081E009F480E01B
:1018D0008B830E943A198160782F9D838C83498184
:1018E0005A816B818D810E94BF0CF801EA56FE4F30
:1018F0008081E826E0820E94CC0B909195018917A7
:1019000079F10E94CC0B809395010F900F900F906E
:101910000F900F90DF91CF911F910F91FF90EF905B
:10192000DF90CF90BF900C940B038F5FEE0C86304E
:1019300031F60F5F1F4F0A30110509F0ABCF8FEF63
:1019400089838A831B820E943A198160782F9D8344
:101950008C8349815A816B818D810E94BF0CCBCFD2
:101960000F900F900F900F900F90DF91CF911F91DC
:101970000F91FF90EF90DF90CF90BF900895CF939D
:10198000DF93CDB7DEB72B970FB6F894DEBF0FBE4F
:10199000CDBF4F83588769877A878B878A859B85D8
:1019A000892B21F0CA0189238F3FD1F41E8285E063
:1019B000FE013796DE01119601900D928A95E1F7AE
:1019C00049815A816B817C818D819E812B960FB6D6
:1019D000F894DEBF0FBECDBFDF91CF910C942D13D5
:1019E0008091A1019091A20101969093A201809310
:1019F000A101DCCFFC01808191810C94B416CF93BE
:101A0000C82F882309F469C08238C1F40E94CC0B26
:101A100081FD63C089E30E94EA160E945E172FEFE2
:101A200081EE94E0215080409040E1F700C000003A
:101A300089E30E94F116CF910C945E178338A1F4CC
:101A40000E94CC0B80FD49C083E50E94EA160E94EB
:101A50005E172FEF81EE94E0215080409040E1F737
:101A600000C0000083E5E5CF8438A1F40E94CC0BD0
:101A700082FD33C087E40E94EA160E945E172FEFB2
:101A800081EE94E0215080409040E1F700C00000DA
:101A900087E4CFCF8CEF8C0F813A90F46C2F80913C
:101AA000190190911A010E947018882329F08C2F37
:101AB0000E94F1160E945E178C2F0E94EA16BBCF7F
:101AC00080E28C0F883048F4C77081E001C0880F35
:101AD000CA95EAF70E941217AECFCF9108958823D6
:101AE00009F44BC0823871F40E94CC0B81FF45C0D1
:101AF00089E30E94EA160E945E1789E30E94F116AC
:101B00000C945E17833859F40E94CC0B80FF35C0CB
:101B100083E50E94EA160E945E1783E5EFCF8438C2
:101B200059F40E94CC0B82FF28C087E40E94EA1679
:101B30000E945E1787E4E2CF9CEF980F913AF0F293
:101B400090E2980F983050F4877091E001C0990F9F
:101B50008A95EAF7892F0E941817D2CF9BE5980F34
:101B6000933020F490E080E00C94E30B885A8731A6
:101B700020F490E080E00C94F90B0895CF93C82FE7
:101B80000E94FF0CC93349F42FEF87EE93E02150F8
:101B900080409040E1F700C000008C2FCF910C9462
:101BA0006F0D882321F00E9412170C945E17089580
:101BB000882321F00E9418170C945E1708950E9444
:101BC00031170E9442170C945E170E94F8160C946D
:101BD000DF0D0E9420170C94E50D282F892F829588
:101BE0008F70903C80F48A30B0F4843020F48230DE
:101BF00090F480E008958630E1F781E0283E88F097
:101C0000213FB9F70EC08C3011F08F3091F793FB64
:101C1000882780F9089581E0203F39F018F4283EA4
:101C200040F70895243F29F7FCCF08950E94B41689
:101C30000C94ED0D6F927F928F929F92AF92BF9214
:101C4000CF92DF92EF92FF920F931F93CF93DF9388
:101C500000D000D000D0CDB7DEB76C016D837E839D
:101C6000FC01158112951F70028101110E9431172C
:101C70000E940817E82E882391F00023D1F08E816E
:101C8000807F803421F08D81805E883090F082E00A
:101C90000E94A9170E94081791E0E82EE926AE805D
:101CA000A2942FE0A222B12CF501E956FD4D0C942F
:101CB0003122E12CF4CFFE81FF70FF2E8E81807FD8
:101CC00019F0F29490EFF9220023B1F0FF2061F0B7
:101CD0008D81805E883018F06D80611009C08F2D75
:101CE0000E9412170E945E178D810E94FF0C15C082
:101CF0008F2D0E942317F6CF8D810E946F0DFF203C
:101D000061F08D81805E883018F07D80711042C056
:101D10008F2D0E9418170E945E17E8E0AE1AB108D6
:101D2000F4E0AF16B10420F40E94CC0B0E940B0328
:101D30008D819E810E94ED0D8111BEC11092A20184
:101D40001092A101EE2009F4C9C10E94041780FD80
:101D5000C5C1F60112820E94FE160E940915C60135
:101D60000E949A100E94FE1626960FB6F894DEBFC7
:101D70000FBECDBFDF91CF911F910F91FF90EF90DC
:101D8000DF90CF90BF90AF909F908F907F906F909B
:101D90000C943A158F2D0E942917BDCF2E812F70DC
:101DA000F22E8E81807F803219F0F29480EFF8223B
:101DB0006D80662041F0262D213019F1002361F15C
:101DC000112321F191CF002381F0111106C00E944F
:101DD00045178F290E94D10DA0CF1130C1F70E9465
:101DE00045178F290E944B1798CF111106C00E94EA
:101DF00054178F2D0E94D80D90CF113009F48DCF3C
:101E0000F6CF002329F0163008F087CF8F2DE2CFD0
:101E1000153008F082CFEDCF112359F38D8189332E
:101E200049F49FEFE7EEF3E09150E040F040E1F736
:101E300000C000008D810E946F0D6FCF8E81837076
:101E400009F058C0011169CF2D8122952695277080
:101E5000220F220F4D814F7050E070E060E0022EA3
:101E600004C0440F551F661F771F0A94D2F76D8078
:101E700080E090E0DC0164FE0FC08FE090E0A0E025
:101E8000B0E004C0880F991FAA1FBB1F2A95D2F784
:101E900080959095A095B0952E81269526952370D6
:101EA0003C014D01642A752A862A972A69827A8222
:101EB0008B829C82223081F02330A9F0213029F0DE
:101EC000C401B3010E947F1428CF69817A818B817C
:101ED0009C810E94571421CF69817A818B819C81DA
:101EE0000E94A7141ACF69817A818B819C810E94FC
:101EF000551413CF002309F444C07E8070FE0DCF2B
:101F00002D81229526952770220F220F4D814F702B
:101F100050E070E060E0022E04C0440F551F661FC1
:101F2000771F0A94D2F79D8080E090E0DC0194FE58
:101F30000FC08FE090E0A0E0B0E004C0880F991FD0
:101F4000AA1FBB1F2A95D2F780959095A095B095B2
:101F50002E812695269523703C014D01642A752A11
:101F6000862A972A69827A828B829C822230A1F00B
:101F70002330C9F0213049F0C401B3010E94C815D3
:101F8000CCCE8E8081FEC9CEBBCF69817A818B8118
:101F90009C810E94A015C1CE69817A818B819C8130
:101FA0000E94F015BACE69817A818B819C810E9452
:101FB000D314B3CE2E812F70F22E002329F0822F5E
:101FC0000E9409158D8106CF8D810E94D80D8F2D1D
:101FD0000E943A15A2CE8D81823FA1F160F4803F2C
:101FE000E1F0813F41F1002309F445C011117CCE9D
:101FF0008E818F7124C09D81933F49F1943F99F761
:10200000002379F1EE81EF71FE2E8E2F0E940915CB
:1020100063E08F2D0E94941780CE002341F015308D
:1020200008F07BCE8E818F710E946F1576CE1630B0
:1020300008F073CEF7CF8E818F71002349F20E9492
:1020400009156BCE8E818F710023C9F3C1CF002398
:1020500029F08E818F710E94E4145FCE0E94DF14FC
:102060005CCE81E00E94A917123008F456CE82E0BF
:102070000E94A91752CE112361F0FD81F93309F0B6
:10208000D9CE2FEF87EE93E0215080409040E1F7CA
:10209000CFCE8E818F719CCF4E814F706D81C601E6
:1020A0000E9465030E94C71338CE4E814F706D8128
:1020B000C6010E94680331CE002319F011113ECEF3
:1020C00041CE11113BCE8091A1019091A2010297C6
:1020D00009F034CE8D810E94BE0D30CE26960FB60B
:1020E000F894DEBF0FBECDBFDF91CF911F910F914E
:1020F000FF90EF90DF90CF90BF90AF909F908F9028
:102100007F906F9008950F931F93CF93DF93EC010F
:10211000688179818A810E94C0168C010E941816FC
:102120000E945414B801CE01DF91CF911F910F91FD
:102130000C941A0ECF93DF93EC018B819C81892B39
:1021400029F08981988189238F3F59F4DF91CF91BC
:102150000895CE010E948310CE01DF91CF910C949F
:10216000ED02CE010E9423038111F3CF0E940817D4
:10217000882361F38A81882349F382E0DF91CF913C
:102180000C94A917CF93DF9300D000D00F92CDB756
:10219000DEB70F900F900F900F900F90DF91CF91BF
:1021A0000895CF93DF9300D000D000D0CDB7DEB735
:1021B00026960FB6F894DEBF0FBECDBFDF91CF914C
:1021C00008951F93CF93DF93E091A30116E08091D0
:1021D000A4018E1304C0DF91CF911F910895CE2FDB
:1021E000D0E01E9FF0011124EB55FE4F408151813C
:1021F00062817381848195810E94D110FE013196A4
:10220000E770E5CF4091D5015091D6016091D7019B
:102210007091D8018091D9019091DA010C94D1107C
:102220001F93CF93DF938091DA01807FA9F480918F
:10223000D701882389F08091A301C091A4017091F6
:10224000D5016091D601A091D801B091D901D62FC6
:10225000D72316E0C81304C0DF91CF911F910895D2
:1022600090E0109711F0DF3F19F401968770F2CFDC
:10227000189F9001199F300D1124F901EB55FE4F65
:1022800041816413F2CF40814713EFCF4281411166
:10229000ECCF438154814A1B5B0B443F514028F7EC
:1022A0008091DA018F7080618093DA01F901E6553F
:1022B000FE4F80818F708061808385ED91E00E9468
:1022C0009A10DF91CF911F910C94E110AF92BF92C1
:1022D000CF92DF92EF92FF920F931F93CF93DF93F2
:1022E000CDB7DEB72B970FB6F894DEBF0FBECDBFCC
:1022F0008C0185E0F801DE01179601900D928A9518
:10230000E1F7D8014C9111965C9111971296EC90DF
:1023100095EDC92E91E0D92E6091D8017091D90127
:102320006115710549F09091D5012091D601892F51
:1023300082238F3F09F07BC1EE2009F48AC14F83CD
:1023400058878F8198850E94160EF82E882309F4ED
:1023500080C186E0F801A5EDB1E001900D928A956B
:10236000E1F785ED91E00E94FA0C0E9410115CC12A
:102370008091DA01382F307F643F714008F0A4C0AB
:102380003111EBC0FE2C251324C0941322C0E110A0
:1023900020C08F7080618093DA010E94021185ED68
:1023A00091E00E949A108091DA01F80185838F2DC7
:1023B0002B960FB6F894DEBF0FBECDBFDF91CF9145
:1023C0001F910F91FF90EF90DF90CF90BF90AF9053
:1023D0000895A114B10429F0842F85238F3F09F0BB
:1023E000B9C080E080FF08C0E091A3012091A40162
:1023F00086E0D82EE2131BC0AB2829F0842F85235A
:102400008F3F09F099C080E0F82FF170DF2EE09146
:10241000A3012091A40136E080FD30C0EE2039F206
:102420008091DA0181608093DA01F12CC0CF8E2F88
:1024300090E0DE9EF0011124EB55FE4F3181351303
:1024400006C03081341303C032813E1178C0FC01D4
:102450003196E770CFCF8E2F90E03E9FF001112490
:10246000EB55FE4F6181651306C06081641303C0A4
:1024700062816E11D3CFFC013196E770E213EBCF8E
:102480004F8358878F8198850E94B416292F2295F3
:102490002F70903268F0225F2F70223080F49F708E
:1024A00059F0D80115969C91907F31F4D12C0AC037
:1024B0009F7011F08823D1F3805E8830B8F3C80193
:1024C0000E949A10FD2C73CF31117CC06E2D7A853D
:1024D0008B850E94C21085ED91E00E949A1086E0E3
:1024E000D6011D928A95E9F70E9402119ECF86E0DF
:1024F000F801A5EDB1E001900D928A95E1F757CF73
:102500004F8358878F8198850E94160E81114BC08A
:102510008091DA0181608093DA01C8010E949A10EB
:1025200046CF6E2D7A858B850E94C21086E0D6013B
:102530001D928A95E9F778C081E08E2565CF85EDFB
:1025400091E00E949A10E5EDF1E0DF011D92DA942E
:10255000E9F7CACF81E08E2545CF251306C0941335
:1025600004C0F801EE2009F453C04F8358878F81CF
:1025700098850E94160E882309F46BC0EE2009F49A
:1025800068C08091DA01803270F02091D5013091DD
:10259000D6013A8329831B82BD82AC828E83CE0111
:1025A00001960E949A1086E0F801A5EDB1E0019035
:1025B0000D928A95E1F70E9410110E940211FF24EA
:1025C000F394F5CE2513D1CF9413CFCFE110CDCF17
:1025D000F8018583C8010E949A1086E0D6011D92F9
:1025E0008A95E9F7E4CE25138BCF941389CF809198
:1025F000DA0180FD7CCF982F907F09F478CFF80125
:102600008583903F31F0982F907F905F8F70892B5A
:102610008583C8010E949A1086E0F801A5EDB1E01B
:1026200001900D928A95E1F70E940211C0CEF80147
:10263000A380B480F090D701D501A61BB70BBD01D4
:10264000F11096CE643F714008F06BCFFE2CE11084
:10265000CACFC8010E949A10B2CF1F93CF93DF93C5
:10266000CDB7DEB72C970FB6F894DEBF0FBECDBF47
:102670004F83588769877A878B879C87CE01079617
:102680000E946611882369F08A859B85892B39F021
:1026900058854F81852F84238F3F09F071C016E044
:1026A0005FC086E0FE013796DE01119601900D9223
:1026B0008A95E1F78A859B85892B89F38F81988597
:1026C00089238F3F61F32091A40130E0C901019675
:1026D000877099274091A3014817190671F40E9449
:1026E000E90D1092A4011092A30186E0E5EDF1E05E
:1026F000DF011D928A95E9F7D2CF96E0929FD00133
:10270000939FB00D1124AB55BE4FFE013196019041
:102710000D929A95E1F78093A4010E94E110BFCF3A
:10272000819FC00111248B559E4F0E946611882302
:10273000E9F0E091A3011E9FF0011124EB55FE4F3B
:102740004081518162817381848195810E94D11081
:102750008091A30190E00196877099278093A3014F
:102760008091A3019091A4018913DACF2C960FB622
:10277000F894DEBF0FBECDBFDF91CF911F910895BA
:1027800069857A858B859C850E94D11088CFEF92D0
:10279000FF920F931F93CF93DF938C01892B89F0C6
:1027A000F12CEE24E394E8012196F801849184371A
:1027B00009F458C0A0F4823009F43FC048F48130D5
:1027C000D1F0DF91CF911F910F91FF90EF9008957D
:1027D0009CEF980F9037A8F70E94FF0C0AC085372E
:1027E00009F44EC09CE7980F903758F78F770E94F6
:1027F0006F0D8E0116C00E5F1F4FFE01849190E297
:10280000980F983060F48770FE2D01C0FF0F8A95F5
:10281000EAF78F2F0E9434170E945E1702C00E94B1
:10282000FF0C8F2D882309F4BECFEFE9FFE031972D
:10283000F1F700C000008150F5CF0E5F1F4FFE0181
:10284000849190E2980F983050F48770FE2D01C06B
:10285000FF0F8A95EAF78F2F0E943A17DDCF0E946B
:102860006F0DDFCF0E5F1F4FFE01C491CC23C9F265
:102870008FE99FE00197F1F700C00000C150F6CF4B
:102880000E5F1F4FFE01F490CCCF08950C944514B9
:102890000E94461460930702709308028093090215
:1028A00090930A020C94DF0D08950C944814CF9372
:1028B000DF9300D000D0CDB7DEB769837A838B83F6
:1028C0009C838091070290910802A0910902B09127
:1028D0000A0229813A814B815C81282B392B4A2BB2
:1028E0005B2B29833A834B835C83CA01B9010F9028
:1028F0000F900F900F90DF91CF910C944814CF93CD
:10290000DF9300D000D0CDB7DEB769837A838B83A5
:102910009C838091070290910802A0910902B091D6
:102920000A0229813A814B815C81282339234A2379
:102930005B2329833A834B835C83CA01B9010F90DF
:102940000F900F900F90DF91CF910C944814CF937C
:10295000DF9300D000D0CDB7DEB769837A838B8355
:102960009C838091070290910802A0910902B09186
:102970000A0229813A814B815C81282739274A271D
:102980005B2729833A834B835C83CA01B9010F908B
:102990000F900F900F90DF91CF910C9448140C94EE
:1029A00045140C94CF140E94D114609303027093C9
:1029B000040280930502909306020C94DF0D60E000
:1029C00070E0CB010C94D3140F931F93CF93DF933C
:1029D00000D000D0CDB7DEB741E050E060E070E05D
:1029E0008A019B0104C0000F111F221F331F8A950B
:1029F000D2F709831A832B833C83C901B8010F9056
:102A00000F900F900F90DF91CF911F910F910C9429
:102A1000D3140F931F93CF93DF9300D000D0CDB783
:102A2000DEB741E050E060E070E004C0440F551FA5
:102A3000661F771F8A95D2F7809103029091040256
:102A4000A0910502B09106028A019B01082B192B67
:102A50002A2B3B2B09831A832B833C83C901B801A2
:102A60000F900F900F900F90DF91CF911F910F91CA
:102A70000C94D3140F931F93CF93DF9300D000D007
:102A8000CDB7DEB741E050E060E070E004C0440F35
:102A9000551F661F771F8A95D2F740955095609510
:102AA00070958091030290910402A0910502B0916B
:102AB00006028A019B01082319232A233B23098349
:102AC0001A832B833C83C901B8010F900F900F909C
:102AD0000F90DF91CF911F910F910C94D3140F930E
:102AE0001F93CF93DF9300D000D0CDB7DEB741E086
:102AF00050E060E070E004C0440F551F661F771F70
:102B00008A95D2F78091030290910402A091050268
:102B1000B09106028A019B01082719272A273B2723
:102B200009831A832B833C83C901B8010F900F904E
:102B30000F900F90DF91CF911F910F910C94D314B0
:102B4000CF93DF9300D000D0CDB7DEB769837A830F
:102B50008B839C838091030290910402A0910502D3
:102B6000B091060229813A814B815C81282B392B57
:102B70004A2B5B2B29833A834B835C83CA01B901BF
:102B80000F900F900F900F90DF91CF910C94D31472
:102B9000CF93DF9300D000D0CDB7DEB769837A83BF
:102BA0008B839C838091030290910402A091050283
:102BB000B091060229813A814B815C812823392317
:102BC0004A235B2329833A834B835C83CA01B9017F
:102BD0000F900F900F900F90DF91CF910C94D31422
:102BE000CF93DF9300D000D0CDB7DEB769837A836F
:102BF0008B839C838091030290910402A091050233
:102C0000B091060229813A814B815C8128273927BE
:102C10004A275B2729833A834B835C83CA01B90126
:102C20000F900F900F900F90DF91CF910C94D314D1
:102C30000895292F220FE22FE90FEE0FE80F8E2FB4
:102C4000877041E001C0440F8A95EAF7E695E69562
:102C5000E69585E0E89FF0011124E552FE4F30E053
:102C600020E070E05191DF011197CB01022E02C0EC
:102C7000969587950A94E2F781708195852784233C
:102C800085278C932F5F3F4F2530310559F70895E5
:102C9000292F220FE22FE90FEE0FE80F9E2F9770DA
:102CA000E695E695E69585E0E89FF0011124E5526A
:102CB000FE4F50E040E080E0219130E0092E02C05C
:102CC000369527950A94E2F721703327042E01C028
:102CD000220F0A94EAF7822B4F5F5F4F4530510570
:102CE00059F70895BF92CF92DF92EF92FF920F9320
:102CF0001F93CF93DF938C01C0900302D090040206
:102D0000E0900502F090060280910702909108027F
:102D1000A0910902B0910A02C82AD92AEA2AFB2AFC
:102D2000CFE1D0E0BC2ED701C6010C2E04C0B69571
:102D3000A795979587950A94D2F780FD0EC02197A5
:102D400088F7B12C8B2DDF91CF911F910F91FF90C0
:102D5000EF90DF90CF90BF900895B8018C2F0E9424
:102D60008503019761F3EECFCF93DF93D82FC92F5F
:102D70000E9472166D2F7C2FDF91CF910C948503EA
:102D80001F93CF93DF93162FD72F9091A0019923F4
:102D900039F0862F972FDF91CF911F910C94B416A5
:102DA000882391F0862F972F0E947216C82F682FC4
:102DB000812F9D2F0E941916612F7D2F8C2FDF915F
:102DC000CF911F910C948503862F972F0E94481650
:102DD000C82FF2CF682F8091190190911A010C949D
:102DE000AA18682F8091190190911A010C94AC18BF
:102DF0008091190190911A010C94AE1880910B02E8
:102E0000859585958595089580910B028770089525
:102E100090910B02977081E009F480E00895809111
:102E20001702089590911702982B90931702089516
:102E3000982F909580911702892380931702089507
:102E400010921702089590911602982B90931602F3
:102E50000895982F909580911602892380931602E9
:102E6000089510921602089590911502982B909350
:102E700015020895982F90958091150289238093CB
:102E80001502089510921502089580910C0208957C
:102E900008950C94481790910C02981721F0809394
:102EA0000C020C944917089580910C02882329F094
:102EB00010920C0280E00C9449170895E0911901DA
:102EC000F0911A01809117028083E0911901F0912D
:102ED0001A01808190911602892B8083E09119015B
:102EE000F0911A01808190911502892B8083909135
:102EF0000C02992381F0E0911901F0911A0180816F
:102F0000892B80838091190190911A010E945E188B
:102F100081110E9454178091190190911A010C940B
:102F2000D80B08950C94911798E0899F9001112473
:102F3000622B60930B020E94091580910B0285950C
:102F4000859585950C94921710920B0280E00C9455
:102F5000921790910B028095892380930B02282F62
:102F6000277071F4282F082E000C330B92171306CC
:102F700039F08595859585950E943A150C94A4178E
:102F8000089590E080E00E943F229C0181E02C3E69
:102F90003E4F09F080E0089582E090E00C943722E3
:102FA00083E090E00C943722CF9384E090E00E947D
:102FB0003722C82F81E290E00E943722982F8C2F71
:102FC000CF910895CF93682FC92F84E090E00E949D
:102FD00045226C2F81E290E0CF910C944522AB0109
:102FE000BC018FE090E00C945722AB01BC0183E15F
:102FF00090E00C94572260E070E0CB010C94F51740
:103000006CEE7EEF90E080E00E94632260E082E060
:1030100090E00E94452260E083E090E00E9445221B
:1030200010920702109208021092090210920A02EE
:1030300060E084E090E00E94452260E081E290E060
:103040000E94452260E085E090E00E94452260E019
:1030500086E090E00E9445226FEF87E090E00E94BA
:10306000452240E050E0BA0188E090E00E945722FB
:1030700060E08DE090E00E94452240E050E0BA011F
:1030800088E190E00E94572260E087E190E00E9492
:10309000452240E050E0BA018CE190E00E945722C6
:1030A00060E080E290E00E9445220C94A1020C9422
:1030B0000018682F8EE090E00C944522AC019C0132
:1030C0002E5F3F4F485F5F4F80E02417350709F4BC
:1030D0000895F90191919F019923B9F38F5FF5CF7D
:1030E0009C01662351F0FC013296285F3F4F81918D
:1030F000861729F0E217F307D1F780E0089581E001
:1031000008959C01FC0132968FEF90E041914617A3
:1031100051F08F3F19F4411101C0892F9F5F963004
:10312000A9F78F3F09F40895280F311D87FD3A95BF
:10313000F901628308959C01FC013296285F3F4F9C
:103140008191861303C0DF0111971C92E217F307E8
:10315000B9F708950C9481180C949B18FC013296D1
:1031600086E0DF011D928A95E9F708950895089594
:103170000C94B7180E94B81880912E02843049F13F
:103180001092190288E190E020E40FB6F894A89517
:10319000809360000FBE2093600080E00E940B03CC
:1031A0000E94B81883B7817F846083BF83B7816032
:1031B00083BF7894889583B78E7F83BF0FB6F894CA
:1031C000A8958091600088618093600010926000F3
:1031D0000FBE08950895CF930E94B6180E94350639
:1031E0000E94EA18C0E08C2F0E945305811105C08F
:1031F000CF5FCA30C1F7CF91089581E0FCCF089529
:103200000C94FF180E94E90D0E94CC0B0E940B0346
:103210000C9400191F921FB61F9211248F939F9335
:10322000AF93BF9380911902811113C080911A024C
:1032300090911B02A0911C02B0911D024196A11D0C
:10324000B11D80931A0290931B02A0931C02B093AD
:103250001D02BF91AF919F918F911F901FBE1F9034
:10326000189582E084BD93E095BD9AEF97BD809359
:103270006E0008952FB7F89480911A0290911B0266
:10328000A0911C02B0911D022FBF08959C014FB761
:10329000F89480911A0290911B02A0911C02B091A7
:1032A0001D024FBF821B930B089578941F921FB687
:1032B0001F9211248F939F93AF93BF9380911A0213
:1032C00090911B02A0911C02B0911D020196A11DBC
:1032D000B11D80931A0290931B02A0931C02B0931D
:1032E0001D02BF91AF919F918F911F901FBE1F90A4
:1032F000189581E08093E00080E28093D8001092DE
:10330000C9008FE19EE40197F1F700C0000087E05B
:1033100090EBDC018093380290933902A0933A023B
:10332000B0933B0288E19CE00FB6F894A895809397
:1033300060000FBE90936000FFCFCF93DF9300D06B
:1033400000D0CDB7DEB70E94C117811102C00E9424
:1033500057180E94CC17809318020E94D41790939C
:103360001F0280931E020E94D017282F30E050E0E9
:1033700040E029833A834B835C83CA01B9010F90F3
:103380000F900F900F90DF91CF910C945514809176
:103390002802089508950895CF93DF93D82FC92F59
:1033A0000E94E61B823011F0843049F581E0809361
:1033B000E9008FEF9091E800815095FD06C095EDF2
:1033C0009A95F1F700008111F5CF8091E80085FF13
:1033D00016C050E040E068E070E08D2F9C2F0E9406
:1033E000031C8091E8008E778093E80088E0ED2F41
:1033F000FC2FA0E2B2E001900D928A95E1F7DF91F7
:10340000CF910895089580913702811109C00E94DB
:103410008B1D0E94E81D8091E20084608093E20091
:103420000895109237020895089508950C94021992
:1034300042E061EC81E00E94071D42E061EC82E025
:103440000E94071D42E160E884E00E94071D42E1FE
:1034500061E883E00C94071D80913002893009F403
:1034600049C060F4823009F4A4C0833009F473C009
:10347000813009F18BE191E00C9473218A3009F4D9
:1034800087C08B30B9F780912F02813299F78091F4
:10349000330290913402892B69F78091E800877F8D
:1034A0008093E8000E943B1D80913102809340018F
:1034B0000E94E90DDFCF80912F02813AD9F68091E9
:1034C000E800877F8093E800809133029091340276
:1034D000892B61F468E080E292E070E00E94521C67
:1034E0008091E8008B778093E800C4CF60E090E0A3
:1034F00080E0F3CF80912F02813209F0BBCF809121
:10350000330290913402892B09F0B4CF8091E80006
:10351000877F8093E8008091E80082FF17C0909138
:10352000F3008091F200029729F48091F1008B7FE3
:10353000813021F48091F100809328028091E8008D
:103540008B778093E8000E943B1D94CF80912E02E0
:103550008111E1CF089580912F02813A09F08ACF3D
:103560008091330290913402892B09F083CF8091AE
:10357000E800877F8093E8008091E80080FFFCCF1F
:10358000809140018093F1008091E8008E77D9CF3F
:1035900080912F02813209F06DCF8091E800877F02
:1035A0008093E8000E943B1D8091320280932902A3
:1035B00061CF80912F02813A09F05CCF8091E800C1
:1035C000877F8093E8008091E80080FFFCCF8091A6
:1035D0002902D8CF82E090E090932E0180932D01B4
:1035E0008BE191E00C942A210895CF93DF938BE136
:1035F00091E00E94D120EC01209719F4DF91CF9146
:1036000008958BE191E00E94FA200E94F41A21971C
:10361000F3CFCF93C091E9002091EC00922F9170ED
:1036200020FD90E820912B0120FF12C0CF70C92B04
:1036300090911C019F709093E9009091EB0090FF96
:1036400004C09091EE0097FD05C0CF70C093E900D3
:10365000CF9108959FEF2091E800915025FD06C07D
:1036600025ED2A95F1F700009111F5CF8093F10037
:103670008BE191E00E948A208091E80080FFE5CFF5
:103680008091E8008E778093E800DFCF84B7877F52
:1036900084BF0FB6F894A8958091600088618093EC
:1036A0006000109260000FBE80E890E00FB6F894C2
:1036B00080936100909361000FBE0E941D0C0E94D8
:1036C0008B1D0E94E81D8091E20084608093E200DF
:1036D00078940E946F200E94250C86E391E00E945E
:1036E000C70B0E94EA1A80912E02853049F00E9491
:1036F0002F0C0E94F51A8BE191E00E94B820F3CFC5
:103700000E94BA1880912B02882369F30E94EB185B
:10371000882349F30E94ED1BE6CF0C948F1B9C017C
:10372000FB01DA01832F992783309105C1F068F4FA
:103730008130910509F43DC0029761F48FE590E076
:103740002EEF33E02D933C9308958132910519F1CA
:10375000829741F190E080E030E020E0F3CFC901B2
:1037600099272230A9F08330910550F4009769F031
:10377000EAEEF3E0019771F7849190E09F01E2CFC8
:10378000ECEBF3E00397C1F3E5CFEAEFF3E0F4CF1E
:10379000E2ECF3E0F1CF89E090E020E134E0EF2BC0
:1037A000C9F6D0CF80E490E02FE634E0EF2B91F61D
:1037B000C9CF82E190E02DE534E0C4CF80912E02A4
:1037C000843011F482E0089581E0089580912A0206
:1037D000811102C00C94DE1B089580E189BD82E155
:1037E00089BD09B400FEFDCF8091D8008F7D809304
:1037F000D8008091E00082608093E0008091E0003A
:1038000081FDFCCF0895AF92BF92CF92DF92FF92DD
:103810000F931F93CF93DF936C01EB018A010E94FA
:103820005A1DF82E811123C00115110539F0F80138
:1038300080819181C81BD90BC80ED91EB12CA12C37
:103840002097A9F08091E80085FD22C08091E800D2
:103850008E778093E80001151105A1F0F8018081B1
:103860009181A80EB91EB182A08285E0F82E8F2D1D
:10387000DF91CF911F910F91FF90DF90CF90BF907C
:10388000AF9008950E945A1D8823D1F2F82EEFCFF1
:10389000F60181916F018093F1002197FFEFAF1A3C
:1038A000BF0ACECFFC01CB01209135023091360208
:1038B0002617370790F0009729F42091E8002E771B
:1038C0002093E80040E0009751F4411108C0809136
:1038D000E80082FF31C080E00895C901F3CF209154
:1038E0002E022223A9F12530A9F12091E80023FD21
:1038F0002DC02091E80022FDEACF2091E80020FFB2
:10390000E2CF3091F3002091F200009719F02830B7
:10391000310558F041E02830310509F040E02091B0
:10392000E8002E772093E800CECF41914093F1003C
:1039300001972F5F3F4FE9CF80912E02882341F0FE
:10394000853041F08091E80083FFC1CF81E0089588
:1039500082E0089583E00895FC01CB0120913502B7
:10396000309136022617370790F0009729F42091FE
:10397000E8002E772093E80040E0009751F44111D1
:1039800008C08091E80082FF32C080E00895C9013C
:10399000F3CF20912E022223B1F12530B1F12091F5
:1039A000E80023FD2EC02091E80022FDEACF2091FF
:1039B000E80020FFE2CF3091F3002091F200009761
:1039C00019F02830310558F041E02830310509F070
:1039D00040E02091E8002E772093E800CECF44917C
:1039E0004093F100319601972F5F3F4FE8CF8091D0
:1039F0002E02882341F0853041F08091E80083FF5A
:103A0000C0CF81E0089582E0089583E00895982F63
:103A1000973028F08F708093E90081E008959093AB
:103A2000E900242F762F50E0981731F07091EC00C8
:103A30002091ED005091F00021FD02C09F5FE8CF82
:103A40003091EB003E7F3093EB003091ED003D7FF5
:103A50003093ED003091EB0031603093EB007093C8
:103A6000EC002093ED005093F0002091EE0027FD34
:103A7000E5CF80E0089580912F0287FF13C08091E9
:103A8000E80082FF06C08091E8008B778093E80011
:103A900004C080912E028111F2CF089580912E02F0
:103AA0008823D9F38091E80080FFF8CF8091E80067
:103AB0008E77ECCF2091E4003091E50095E6A901E6
:103AC0002091EC00822F817020FF06C08091E800D9
:103AD00080FF06C080E008952091E80022FD1AC012
:103AE00080912E02882389F0853089F08091EB0047
:103AF00085FD0FC02091E4003091E5004217530787
:103B0000F9F29150E1F684E0089582E0089583E0AF
:103B1000089581E008950E94F91D0E94011EE0EEC3
:103B2000F0E0808181608083E8EDF0E080818F7734
:103B3000808319BCA7EDB0E08C918E7F8C9380813F
:103B40008F7E80831092370208950F931F93CF9337
:103B5000DF930E94F91D0E94011EC8EDD0E088810C
:103B60008F77888388818068888388818F7D888328
:103B700019BC10922E0210922D0210922B0210925C
:103B80002C0200EE10E0F80180818B7F8083888119
:103B90008160888342E060E080E00E94071DE1EEE2
:103BA000F0E080818E7F8083E2EEF0E080818160B2
:103BB0008083808188608083F80180818E7F80830C
:103BC000888180618883DF91CF911F910F91089543
:103BD000E8EDF0E080818F7E8083E7EDF0E080818A
:103BE0008160808384E082BF81E0809337020C94FF
:103BF000A51DE8EDF0E080818E7F80831092E200C9
:103C000008951092DA001092E10008951F920F9229
:103C10000FB60F9211242F933F934F935F936F939F
:103C20007F938F939F93AF93BF93EF93FF93809175
:103C3000E10082FF0BC08091E20082FF07C080910B
:103C4000E1008B7F8093E1000E946E208091DA007A
:103C500080FF19C08091D80080FF15C08091DA00E4
:103C60008E7F8093DA008091D90080FF94C080E13C
:103C700089BD82E189BD09B400FEFDCF81E080935A
:103C80002E020E94031A8091E10080FF19C08091EA
:103C9000E20080FF15C08091E2008E7F8093E200F9
:103CA0008091E20080618093E2008091D800806280
:103CB0008093D80019BC85E080932E020E94151ACB
:103CC0008091E10084FF29C08091E20084FF25C03B
:103CD00080E189BD82E189BD09B400FEFDCF8091FC
:103CE000D8008F7D8093D8008091E1008F7E8093F3
:103CF000E1008091E2008F7E8093E2008091E200FB
:103D000081608093E20080912D02882309F449C0EC
:103D100084E080932E020E94161A8091E10083FFB6
:103D200029C08091E20083FF25C08091E100877F58
:103D30008093E10082E080932E0210922D02809108
:103D4000E1008E7F8093E1008091E2008E7F80937E
:103D5000E2008091E20080618093E20042E060E056
:103D600080E00E94071D8091F00088608093F00041
:103D70000E94141AFF91EF91BF91AF919F918F9183
:103D80007F916F915F914F913F912F910F900FBE57
:103D90000F901F90189519BC10922E020E94111AB4
:103DA00072CF8091E30087FD02C081E0B2CF83E053
:103DB000B0CF1F920F920FB60F9211242F933F9303
:103DC0004F935F936F937F938F939F93AF93BF9323
:103DD000CF93DF93EF93FF93D091E900DF70809151
:103DE000EC00C82FC17080FDC0E81092E9008091FE
:103DF000F000877F8093F00078940E941D1F10923E
:103E0000E9008091F00088608093F000CD2BCF70A6
:103E1000C093E900FF91EF91DF91CF91BF91AF91F6
:103E20009F918F917F916F915F914F913F912F91D2
:103E30000F900FBE0F901F9018951F93CF93DF9395
:103E4000CDB7DEB7AA970FB6F894DEBF0FBECDBFD1
:103E50008FE292E0FC0101962091F100208322E0A4
:103E600087339207B9F70E942C1A8091E80083FFEC
:103E70001DC180912F02909130029A3008F016C136
:103E8000E92FF0E0E955FD4D0C943122803899F08E
:103E9000823809F00BC1809133028F70873008F0AF
:103EA00005C18093E9008091EB0085FB882780F9AC
:103EB0001092E90006C080912C0290912B02911182
:103EC00082609091E800977F9093E8008093F100E2
:103ED0001092F1008091E8008E77E4C0882309F405
:103EE000D2C0823009F0E2C0809131028111D5C088
:103EF000809133028F702FEF280F263008F0D6C044
:103F00008093E9002091EB0020FFC7C0933031F48B
:103F10008091EB0080628093EB00BFC09091EB003A
:103F200090619093EB0021E030E001C0220F8A9570
:103F3000EAF72093EA001092EA008091EB00886093
:103F4000EACF8111B3C0109131021F778091E30055
:103F50008078812B8093E3008091E800877F8093B5
:103F6000E8000E943B1D8091E80080FFFCCF80911B
:103F7000E30080688093E30082E0111183E0809386
:103F80002E0294C08058823008F090C08091310297
:103F9000909132028C3D23E0920799F583E08A8369
:103FA0008AE289834FB7F894DE01139620E03EE061
:103FB00051E2E32FF0E050935700849120FF03C0BB
:103FC00082958F703F5F8F708A30C8F0895C90E077
:103FD0008D939D932F5F243161F74FBF8091E8004F
:103FE000877F8093E8006AE270E0CE0101960E942C
:103FF000521C8091E8008B778093E80057C0805D69
:10400000E6CF6091330270913402AE014F5F5F4F93
:104010000E948D1BBC01892B09F448C08091E800E7
:10402000877F8093E80089819A810E94AC1CE1CF50
:104030008038E1F58091E800877F8093E8008091E7
:104040002D028093F10046CF811130C09091310252
:10405000923060F58091E800877F8093E80090932C
:104060002D020E943B1D80912D02882311F084E0D7
:1040700005C08091E30087FDFACF81E080932E0296
:104080000E94181A13C080913102813079F481E0C6
:10409000933009F080E080932B021092E900809128
:1040A000E800877F8093E8000E943B1D8091E80034
:1040B00083FF0AC08091E800877F8093E8008091A9
:1040C000EB0080628093EB00AA960FB6F894DEBFF7
:1040D0000FBECDBFDF91CF911F9108950895CF936B
:1040E00080912E028823A1F0C091E900CF709091B9
:1040F000EC00892F817090FD80E8C82B1092E900B8
:104100008091E80083FD0E941D1FCF70C093E900DD
:10411000CF910895FC0180912E02843039F5848975
:104120009589A689B789892B8A2B8B2BF9F08181F8
:104130008F708093E9009091F3008091F200892BB9
:1041400011F480E008959091E8008091E8008E7766
:104150008093E80095FDF5CF0E945A1D811107C09C
:104160009091E8009E779093E800089582E008958A
:10417000FC0180912E02843099F484899589A68966
:10418000B789892B8A2B8B2B59F081818F70809373
:10419000E9008091E80080FF03C0CF010C948A20E1
:1041A0000895FC0180912E02843019F090E080E0A7
:1041B000089584899589A689B789892B8A2B8B2BA9
:1041C000A9F386818F708093E9008091E80082FFD7
:1041D000EDCF9091F3008091F200009731F420919F
:1041E000E8002B772093E80008959091F3008091E8
:1041F000F2000895FC0180912E02843019F08FEFB7
:104200009FEF089584899589A689B789892B8A2B80
:104210008B2BA9F386818F708093E9008091E80051
:1042200082FFEDCF9091F3008091F200892B79F01D
:104230008091F10090E03091F3002091F200232B67
:1042400029F42091E8002B772093E80008958FEF60
:104250009FEFF1CF0F931F93CF93DF93CDB7DEB7CF
:1042600028970FB6F894DEBF0FBECDBF8C018091AA
:104270002E02843059F5F80184899589A689B78979
:10428000892B8A2B8B2B11F183858F708093E9000A
:1042900088E0EBE4F1E0DE01119601900D928A9541
:1042A000E1F750E040E068E070E0CE0101960E9446
:1042B000031C50E040E062E070E0C80142960E94BA
:1042C000031C8091E8008E778093E80028960FB653
:1042D000F894DEBF0FBECDBFDF91CF911F910F913C
:1042E000089508950895CF93DF93EC018091E8003D
:1042F00083FF13C0288180913302909134022817E4
:10430000190659F480913002823209F487C040F4D2
:10431000803209F44FC08132B9F0DF91CF91089516
:104320008332D9F780912F028132B9F78091E8006A
:10433000877F8093E8000E943B1D60913102CE018F
:10434000DF91CF910C94722180912F02813A29F74D
:104350008091E800877F8093E8008091E80080FFEB
:10436000FCCF8C899D89AE89BF898093F100492F4C
:104370005A2F6B2F77274093F100AD0166277727DF
:104380004093F1008B2F9927AA27BB278093F10038
:10439000888D8093F100898D8093F1008A8D8093C0
:1043A000F1008091E8008E778093E800DF91CF9153
:1043B0000C943B1D80912F02813209F0AECF809189
:1043C000E800877F8093E8008091E80082FF21C0A9
:1043D0003091F1002091F1009091F1008091F10075
:1043E0003C8B2D8B9E8B8F8B8091F100888F8091E1
:1043F000F100898F8091F1008A8F8091E8008B779E
:104400008093E8000E943B1DCE01DF91CF910C9478
:10441000712180912E028111D7CF7FCF80912F0201
:10442000813209F07ACF8091E800877F8093E8009D
:104430000E943B1D8091310290913202998B888BB2
:10444000CE01DF91CF910C947121991B79E004C0CA
:10445000991F961708F0961B881F7A95C9F78095C3
:104460000895EE0FFF1F0590F491E02D0994F9993E
:10447000FECF92BD81BDF89A992780B50895A8E135
:10448000B0E042E050E00C946B22262FF999FECF69
:1044900092BD81BDF89A019700B4021639F01FBA97
:1044A00020BD0FB6F894FA9AF99A0FBE08950396B4
:1044B000272F0E9446220E944522252F0E94462235
:1044C000242F0C9446220196272F0E9446220C94FA
:1044D0004522DC01CB01FC01F999FECF06C0F2BDFB
:1044E000E1BDF89A319600B40D9241505040B8F7B2
:1044F0000895F894FFCFC509CB09CF09DD09E1097B
:10450000E509E909EF09F709FB09FF09030A0F0AA1
:10451000130A170A1B0A210A3F0A290AD309D909D3
:10452000070A0B0AF309250A350A480A4C0A5B0EEA
:104530005B0ECE0ECE0E8D0E8D0E8D0E8D0E1E0FC1
:10454000DA0FEB0FEB0F4C108D0E8D0E5510461F32
:104550006E1F56206E1F5620A11FC21F5620182006
:02456000242015
:10456200F1F49392379431F0F5F6F7000000000071
:104572000175010076010576010D0201831000002C
:104582000104100000018208000001000000000088
:10459200000000000000C719CC19CA19CB19021A71
:1045A20001313292F1F40000000000A1200000006D
:0A45B20000020094979337F03300E5
:00000001FF
